{
  "contractName": "CowCertificate",
  "abi": [
    {
      "inputs": [],
      "stateMutability": "nonpayable",
      "type": "constructor"
    },
    {
      "anonymous": false,
      "inputs": [
        {
          "indexed": false,
          "internalType": "uint256",
          "name": "id",
          "type": "uint256"
        },
        {
          "indexed": false,
          "internalType": "string",
          "name": "dataCow",
          "type": "string"
        }
      ],
      "name": "TaskCreatedCowCert",
      "type": "event"
    },
    {
      "anonymous": false,
      "inputs": [
        {
          "indexed": true,
          "internalType": "address",
          "name": "_from",
          "type": "address"
        },
        {
          "indexed": true,
          "internalType": "address",
          "name": "_to",
          "type": "address"
        },
        {
          "indexed": false,
          "internalType": "uint256",
          "name": "_value",
          "type": "uint256"
        }
      ],
      "name": "Transfer",
      "type": "event"
    },
    {
      "inputs": [],
      "name": "taskCount",
      "outputs": [
        {
          "internalType": "uint256",
          "name": "",
          "type": "uint256"
        }
      ],
      "stateMutability": "view",
      "type": "function"
    },
    {
      "inputs": [
        {
          "internalType": "uint256",
          "name": "",
          "type": "uint256"
        }
      ],
      "name": "taskcows",
      "outputs": [
        {
          "internalType": "uint256",
          "name": "id",
          "type": "uint256"
        },
        {
          "internalType": "string",
          "name": "dataCow",
          "type": "string"
        }
      ],
      "stateMutability": "view",
      "type": "function"
    },
    {
      "inputs": [
        {
          "internalType": "string",
          "name": "_data",
          "type": "string"
        }
      ],
      "name": "CreateCowCert",
      "outputs": [],
      "stateMutability": "nonpayable",
      "type": "function"
    },
    {
      "inputs": [
        {
          "internalType": "address",
          "name": "addr",
          "type": "address"
        }
      ],
      "name": "getBalance",
      "outputs": [
        {
          "internalType": "uint256",
          "name": "",
          "type": "uint256"
        }
      ],
      "stateMutability": "view",
      "type": "function"
    }
  ],
  "bytecode": "0x60806040526000805534801561001457600080fd5b50612710600160003273ffffffffffffffffffffffffffffffffffffffff1673ffffffffffffffffffffffffffffffffffffffff168152602001908152602001600020819055506107b68061006a6000396000f3fe608060405234801561001057600080fd5b506004361061004c5760003560e01c80632d6acafb14610051578063b21e64b714610082578063b6cb58a51461009e578063f8b2cb4f146100bc575b600080fd5b61006b6004803603810190610066919061037e565b6100ec565b604051610079929190610453565b60405180910390f35b61009c600480360381019061009791906105b8565b610198565b005b6100a6610242565b6040516100b39190610601565b60405180910390f35b6100d660048036038101906100d1919061067a565b610248565b6040516100e39190610601565b60405180910390f35b6002602052806000526040600020600091509050806000015490806001018054610115906106d6565b80601f0160208091040260200160405190810160405280929190818152602001828054610141906106d6565b801561018e5780601f106101635761010080835404028352916020019161018e565b820191906000526020600020905b81548152906001019060200180831161017157829003601f168201915b5050505050905082565b6000808154809291906101aa90610737565b919050555060405180604001604052806000548152602001828152506002600080548152602001908152602001600020600082015181600001556020820151816001019080519060200190610200929190610291565b509050507f4b38728b9f299b899b2a8c9c0d2cb33e01daecd1aa3e820f7a86ba9070d9e97860005482604051610237929190610453565b60405180910390a150565b60005481565b6000600160008373ffffffffffffffffffffffffffffffffffffffff1673ffffffffffffffffffffffffffffffffffffffff168152602001908152602001600020549050919050565b82805461029d906106d6565b90600052602060002090601f0160209004810192826102bf5760008555610306565b82601f106102d857805160ff1916838001178555610306565b82800160010185558215610306579182015b828111156103055782518255916020019190600101906102ea565b5b5090506103139190610317565b5090565b5b80821115610330576000816000905550600101610318565b5090565b6000604051905090565b600080fd5b600080fd5b6000819050919050565b61035b81610348565b811461036657600080fd5b50565b60008135905061037881610352565b92915050565b6000602082840312156103945761039361033e565b5b60006103a284828501610369565b91505092915050565b6103b481610348565b82525050565b600081519050919050565b600082825260208201905092915050565b60005b838110156103f45780820151818401526020810190506103d9565b83811115610403576000848401525b50505050565b6000601f19601f8301169050919050565b6000610425826103ba565b61042f81856103c5565b935061043f8185602086016103d6565b61044881610409565b840191505092915050565b600060408201905061046860008301856103ab565b818103602083015261047a818461041a565b90509392505050565b600080fd5b600080fd5b7f4e487b7100000000000000000000000000000000000000000000000000000000600052604160045260246000fd5b6104c582610409565b810181811067ffffffffffffffff821117156104e4576104e361048d565b5b80604052505050565b60006104f7610334565b905061050382826104bc565b919050565b600067ffffffffffffffff8211156105235761052261048d565b5b61052c82610409565b9050602081019050919050565b82818337600083830152505050565b600061055b61055684610508565b6104ed565b90508281526020810184848401111561057757610576610488565b5b610582848285610539565b509392505050565b600082601f83011261059f5761059e610483565b5b81356105af848260208601610548565b91505092915050565b6000602082840312156105ce576105cd61033e565b5b600082013567ffffffffffffffff8111156105ec576105eb610343565b5b6105f88482850161058a565b91505092915050565b600060208201905061061660008301846103ab565b92915050565b600073ffffffffffffffffffffffffffffffffffffffff82169050919050565b60006106478261061c565b9050919050565b6106578161063c565b811461066257600080fd5b50565b6000813590506106748161064e565b92915050565b6000602082840312156106905761068f61033e565b5b600061069e84828501610665565b91505092915050565b7f4e487b7100000000000000000000000000000000000000000000000000000000600052602260045260246000fd5b600060028204905060018216806106ee57607f821691505b60208210811415610702576107016106a7565b5b50919050565b7f4e487b7100000000000000000000000000000000000000000000000000000000600052601160045260246000fd5b600061074282610348565b91507fffffffffffffffffffffffffffffffffffffffffffffffffffffffffffffffff82141561077557610774610708565b5b60018201905091905056fea26469706673582212201d819aa8e5e3a34e83310aaadd9cfcf7d6ca1424e23a92809ba1c8ae0f89bd9f64736f6c634300080a0033",
  "immutableReferences": {},
  "source": "// SPDX-License-Identifier: MIT\npragma solidity >=0.4.22 <0.9.0;\n\ncontract CowCertificate {\n    uint256 public taskCount = 0;\n    mapping (address => uint) balances;\n    // string[] dataCowCert;\n    event Transfer(address indexed _from, address indexed _to, uint256 _value);\n\n    struct TaskCow {\n        uint256 id;\n        string dataCow;\n    }\n\n    mapping(uint256 => TaskCow) public taskcows;\n\n    event TaskCreatedCowCert(uint256 id, string dataCow);\n\n    constructor() public {\n        balances[tx.origin] = 10000;\n    }\n\n    function CreateCowCert(string memory _data) public {\n        taskCount++;\n        taskcows[taskCount] = TaskCow(taskCount, _data);\n        emit TaskCreatedCowCert(taskCount, _data);\n    }\n\n    function getBalance(address addr) public view returns(uint) {\n        return balances[addr];\n    }\n}\n",
  "sourcePath": "/Users/noobtoninja/Job/Programe/html-to-react/contracts/CowCertificate.sol",
  "compiler": {
    "name": "solc",
    "version": "0.8.10+commit.fc410830.Emscripten.clang"
  },
  "schemaVersion": "3.4.3",
  "updatedAt": "2021-11-25T16:52:43.422Z",
  "devdoc": {
    "kind": "dev",
    "methods": {},
    "version": 1
  },
  "userdoc": {
    "kind": "user",
    "methods": {},
    "version": 1
  }
}