{
  "contractName": "CowCoin",
  "abi": [
    {
      "inputs": [],
      "stateMutability": "nonpayable",
      "type": "constructor"
    },
    {
      "anonymous": false,
      "inputs": [
        {
          "indexed": true,
          "internalType": "address",
          "name": "owner",
          "type": "address"
        },
        {
          "indexed": true,
          "internalType": "address",
          "name": "approved",
          "type": "address"
        },
        {
          "indexed": true,
          "internalType": "uint256",
          "name": "tokenId",
          "type": "uint256"
        }
      ],
      "name": "Approval",
      "type": "event"
    },
    {
      "anonymous": false,
      "inputs": [
        {
          "indexed": true,
          "internalType": "address",
          "name": "owner",
          "type": "address"
        },
        {
          "indexed": true,
          "internalType": "address",
          "name": "operator",
          "type": "address"
        },
        {
          "indexed": false,
          "internalType": "bool",
          "name": "approved",
          "type": "bool"
        }
      ],
      "name": "ApprovalForAll",
      "type": "event"
    },
    {
      "anonymous": false,
      "inputs": [
        {
          "indexed": false,
          "internalType": "uint256",
          "name": "id",
          "type": "uint256"
        },
        {
          "indexed": false,
          "internalType": "string",
          "name": "tokendid",
          "type": "string"
        },
        {
          "indexed": false,
          "internalType": "string",
          "name": "cowCertlist",
          "type": "string"
        },
        {
          "indexed": false,
          "internalType": "string",
          "name": "imgPath",
          "type": "string"
        }
      ],
      "name": "TaskCreateCowCert",
      "type": "event"
    },
    {
      "anonymous": false,
      "inputs": [
        {
          "indexed": false,
          "internalType": "uint256",
          "name": "userId",
          "type": "uint256"
        },
        {
          "indexed": false,
          "internalType": "address",
          "name": "government",
          "type": "address"
        },
        {
          "indexed": false,
          "internalType": "string",
          "name": "username",
          "type": "string"
        }
      ],
      "name": "TaskCreatedadmin",
      "type": "event"
    },
    {
      "anonymous": false,
      "inputs": [
        {
          "indexed": true,
          "internalType": "address",
          "name": "from",
          "type": "address"
        },
        {
          "indexed": true,
          "internalType": "address",
          "name": "to",
          "type": "address"
        },
        {
          "indexed": true,
          "internalType": "uint256",
          "name": "tokenId",
          "type": "uint256"
        }
      ],
      "name": "Transfer",
      "type": "event"
    },
    {
      "inputs": [
        {
          "internalType": "address",
          "name": "to",
          "type": "address"
        },
        {
          "internalType": "uint256",
          "name": "tokenId",
          "type": "uint256"
        }
      ],
      "name": "approve",
      "outputs": [],
      "stateMutability": "nonpayable",
      "type": "function"
    },
    {
      "inputs": [
        {
          "internalType": "address",
          "name": "owner",
          "type": "address"
        }
      ],
      "name": "balanceOf",
      "outputs": [
        {
          "internalType": "uint256",
          "name": "",
          "type": "uint256"
        }
      ],
      "stateMutability": "view",
      "type": "function",
      "constant": true
    },
    {
      "inputs": [
        {
          "internalType": "uint256",
          "name": "",
          "type": "uint256"
        }
      ],
      "name": "blacklistedCowCert",
      "outputs": [
        {
          "internalType": "uint256",
          "name": "id",
          "type": "uint256"
        },
        {
          "internalType": "string",
          "name": "tokendId",
          "type": "string"
        },
        {
          "internalType": "string",
          "name": "cowCertlist",
          "type": "string"
        },
        {
          "internalType": "string",
          "name": "imgPath",
          "type": "string"
        }
      ],
      "stateMutability": "view",
      "type": "function",
      "constant": true
    },
    {
      "inputs": [
        {
          "internalType": "uint256",
          "name": "",
          "type": "uint256"
        }
      ],
      "name": "blockCowcert",
      "outputs": [
        {
          "internalType": "bool",
          "name": "",
          "type": "bool"
        }
      ],
      "stateMutability": "view",
      "type": "function",
      "constant": true
    },
    {
      "inputs": [],
      "name": "cowCertCount",
      "outputs": [
        {
          "internalType": "uint256",
          "name": "",
          "type": "uint256"
        }
      ],
      "stateMutability": "view",
      "type": "function",
      "constant": true
    },
    {
      "inputs": [
        {
          "internalType": "uint256",
          "name": "tokenId",
          "type": "uint256"
        }
      ],
      "name": "getApproved",
      "outputs": [
        {
          "internalType": "address",
          "name": "",
          "type": "address"
        }
      ],
      "stateMutability": "view",
      "type": "function",
      "constant": true
    },
    {
      "inputs": [],
      "name": "goverCount",
      "outputs": [
        {
          "internalType": "uint256",
          "name": "",
          "type": "uint256"
        }
      ],
      "stateMutability": "view",
      "type": "function",
      "constant": true
    },
    {
      "inputs": [
        {
          "internalType": "address",
          "name": "owner",
          "type": "address"
        },
        {
          "internalType": "address",
          "name": "operator",
          "type": "address"
        }
      ],
      "name": "isApprovedForAll",
      "outputs": [
        {
          "internalType": "bool",
          "name": "",
          "type": "bool"
        }
      ],
      "stateMutability": "view",
      "type": "function",
      "constant": true
    },
    {
      "inputs": [],
      "name": "name",
      "outputs": [
        {
          "internalType": "string",
          "name": "",
          "type": "string"
        }
      ],
      "stateMutability": "view",
      "type": "function",
      "constant": true
    },
    {
      "inputs": [
        {
          "internalType": "uint256",
          "name": "tokenId",
          "type": "uint256"
        }
      ],
      "name": "ownerOf",
      "outputs": [
        {
          "internalType": "address",
          "name": "",
          "type": "address"
        }
      ],
      "stateMutability": "view",
      "type": "function",
      "constant": true
    },
    {
      "inputs": [
        {
          "internalType": "address",
          "name": "operator",
          "type": "address"
        },
        {
          "internalType": "bool",
          "name": "approved",
          "type": "bool"
        }
      ],
      "name": "setApprovalForAll",
      "outputs": [],
      "stateMutability": "nonpayable",
      "type": "function"
    },
    {
      "inputs": [
        {
          "internalType": "bytes4",
          "name": "interfaceId",
          "type": "bytes4"
        }
      ],
      "name": "supportsInterface",
      "outputs": [
        {
          "internalType": "bool",
          "name": "",
          "type": "bool"
        }
      ],
      "stateMutability": "view",
      "type": "function",
      "constant": true
    },
    {
      "inputs": [],
      "name": "symbol",
      "outputs": [
        {
          "internalType": "string",
          "name": "",
          "type": "string"
        }
      ],
      "stateMutability": "view",
      "type": "function",
      "constant": true
    },
    {
      "inputs": [
        {
          "internalType": "uint256",
          "name": "",
          "type": "uint256"
        }
      ],
      "name": "taskcows",
      "outputs": [
        {
          "internalType": "uint256",
          "name": "userId",
          "type": "uint256"
        },
        {
          "internalType": "address",
          "name": "government",
          "type": "address"
        },
        {
          "internalType": "string",
          "name": "username",
          "type": "string"
        }
      ],
      "stateMutability": "view",
      "type": "function",
      "constant": true
    },
    {
      "inputs": [
        {
          "internalType": "uint256",
          "name": "tokenId",
          "type": "uint256"
        }
      ],
      "name": "tokenURI",
      "outputs": [
        {
          "internalType": "string",
          "name": "",
          "type": "string"
        }
      ],
      "stateMutability": "view",
      "type": "function",
      "constant": true
    },
    {
      "inputs": [
        {
          "internalType": "address",
          "name": "from",
          "type": "address"
        },
        {
          "internalType": "address",
          "name": "to",
          "type": "address"
        },
        {
          "internalType": "uint256",
          "name": "tokenId",
          "type": "uint256"
        }
      ],
      "name": "transferFrom",
      "outputs": [],
      "stateMutability": "nonpayable",
      "type": "function"
    },
    {
      "inputs": [
        {
          "internalType": "address",
          "name": "_government",
          "type": "address"
        },
        {
          "internalType": "string",
          "name": "_username",
          "type": "string"
        }
      ],
      "name": "addAdmin",
      "outputs": [],
      "stateMutability": "nonpayable",
      "type": "function"
    },
    {
      "inputs": [
        {
          "internalType": "address",
          "name": "_realEstateOwner",
          "type": "address"
        },
        {
          "internalType": "string",
          "name": "_tokenId",
          "type": "string"
        },
        {
          "internalType": "string",
          "name": "_cowCertlist",
          "type": "string"
        },
        {
          "internalType": "string",
          "name": "_imgPath",
          "type": "string"
        }
      ],
      "name": "tokenizedCowCert",
      "outputs": [],
      "stateMutability": "nonpayable",
      "type": "function"
    },
    {
      "inputs": [
        {
          "internalType": "uint256",
          "name": "_tokenId",
          "type": "uint256"
        }
      ],
      "name": "disableTransfer",
      "outputs": [],
      "stateMutability": "nonpayable",
      "type": "function"
    },
    {
      "inputs": [
        {
          "internalType": "uint256",
          "name": "_tokenId",
          "type": "uint256"
        }
      ],
      "name": "enableTransfer",
      "outputs": [],
      "stateMutability": "nonpayable",
      "type": "function"
    },
    {
      "inputs": [
        {
          "internalType": "address",
          "name": "_from",
          "type": "address"
        },
        {
          "internalType": "address",
          "name": "_to",
          "type": "address"
        },
        {
          "internalType": "uint256",
          "name": "_tokenId",
          "type": "uint256"
        }
      ],
      "name": "safeTransferFrom",
      "outputs": [],
      "stateMutability": "nonpayable",
      "type": "function"
    },
    {
      "inputs": [
        {
          "internalType": "address",
          "name": "from",
          "type": "address"
        },
        {
          "internalType": "address",
          "name": "to",
          "type": "address"
        },
        {
          "internalType": "uint256",
          "name": "tokenId",
          "type": "uint256"
        },
        {
          "internalType": "bytes",
          "name": "_data",
          "type": "bytes"
        }
      ],
      "name": "safeTransferFrom",
      "outputs": [],
      "stateMutability": "nonpayable",
      "type": "function"
    }
  ],
  "bytecode": "0x6080604052600060065560006007553480156200001b57600080fd5b506040518060400160405280600c81526020017f536d617274436f776365727400000000000000000000000000000000000000008152506040518060400160405280600c81526020017f534d415254434f574345525400000000000000000000000000000000000000008152508160009080519060200190620000a0929190620001b2565b508060019080519060200190620000b9929190620001b2565b505050604051806060016040528060065481526020013373ffffffffffffffffffffffffffffffffffffffff1681526020016040518060400160405280600881526020017f53757261646174680000000000000000000000000000000000000000000000008152508152506009600060065481526020019081526020016000206000820151816000015560208201518160010160006101000a81548173ffffffffffffffffffffffffffffffffffffffff021916908373ffffffffffffffffffffffffffffffffffffffff1602179055506040820151816002019080519060200190620001a8929190620001b2565b50905050620002c7565b828054620001c09062000291565b90600052602060002090601f016020900481019282620001e4576000855562000230565b82601f10620001ff57805160ff191683800117855562000230565b8280016001018555821562000230579182015b828111156200022f57825182559160200191906001019062000212565b5b5090506200023f919062000243565b5090565b5b808211156200025e57600081600090555060010162000244565b5090565b7f4e487b7100000000000000000000000000000000000000000000000000000000600052602260045260246000fd5b60006002820490506001821680620002aa57607f821691505b60208210811415620002c157620002c062000262565b5b50919050565b61361a80620002d76000396000f3fe608060405234801561001057600080fd5b50600436106101425760003560e01c806395d89b41116100b8578063d16856ca1161007c578063d16856ca14610387578063d5dbc3d5146103a3578063e0be0f57146103d6578063e59989f5146103f4578063e985e9c514610410578063f11a06841461044057610142565b806395d89b41146102e5578063a22cb46514610303578063b88d4fde1461031f578063c3c88a1d1461033b578063c87b56dd1461035757610142565b80632cb3939a1161010a5780632cb3939a146101fd5780632d6acafb1461021b57806342842e0e1461024d5780636352211e146102695780636f7153781461029957806370a08231146102b557610142565b806301ffc9a71461014757806306fdde0314610177578063081812fc14610195578063095ea7b3146101c557806323b872dd146101e1575b600080fd5b610161600480360381019061015c9190612275565b610470565b60405161016e91906122bd565b60405180910390f35b61017f610552565b60405161018c9190612371565b60405180910390f35b6101af60048036038101906101aa91906123c9565b6105e4565b6040516101bc9190612437565b60405180910390f35b6101df60048036038101906101da919061247e565b610669565b005b6101fb60048036038101906101f691906124be565b610781565b005b6102056107e1565b6040516102129190612520565b60405180910390f35b610235600480360381019061023091906123c9565b6107e7565b6040516102449392919061253b565b60405180910390f35b610267600480360381019061026291906124be565b6108b9565b005b610283600480360381019061027e91906123c9565b6108fa565b6040516102909190612437565b60405180910390f35b6102b360048036038101906102ae91906126ae565b6109ac565b005b6102cf60048036038101906102ca9190612769565b610be0565b6040516102dc9190612520565b60405180910390f35b6102ed610c98565b6040516102fa9190612371565b60405180910390f35b61031d600480360381019061031891906127c2565b610d2a565b005b610339600480360381019061033491906128a3565b610eab565b005b610355600480360381019061035091906123c9565b610f0d565b005b610371600480360381019061036c91906123c9565b61106b565b60405161037e9190612371565b60405180910390f35b6103a1600480360381019061039c9190612926565b611112565b005b6103bd60048036038101906103b891906123c9565b611353565b6040516103cd9493929190612982565b60405180910390f35b6103de61151b565b6040516103eb9190612520565b60405180910390f35b61040e600480360381019061040991906123c9565b611521565b005b61042a600480360381019061042591906129dc565b61167f565b60405161043791906122bd565b60405180910390f35b61045a600480360381019061045591906123c9565b611713565b60405161046791906122bd565b60405180910390f35b60007f80ac58cd000000000000000000000000000000000000000000000000000000007bffffffffffffffffffffffffffffffffffffffffffffffffffffffff1916827bffffffffffffffffffffffffffffffffffffffffffffffffffffffff1916148061053b57507f5b5e139f000000000000000000000000000000000000000000000000000000007bffffffffffffffffffffffffffffffffffffffffffffffffffffffff1916827bffffffffffffffffffffffffffffffffffffffffffffffffffffffff1916145b8061054b575061054a82611733565b5b9050919050565b60606000805461056190612a4b565b80601f016020809104026020016040519081016040528092919081815260200182805461058d90612a4b565b80156105da5780601f106105af576101008083540402835291602001916105da565b820191906000526020600020905b8154815290600101906020018083116105bd57829003601f168201915b5050505050905090565b60006105ef8261179d565b61062e576040517f08c379a000000000000000000000000000000000000000000000000000000000815260040161062590612aef565b60405180910390fd5b6004600083815260200190815260200160002060009054906101000a900473ffffffffffffffffffffffffffffffffffffffff169050919050565b6000610674826108fa565b90508073ffffffffffffffffffffffffffffffffffffffff168373ffffffffffffffffffffffffffffffffffffffff1614156106e5576040517f08c379a00000000000000000000000000000000000000000000000000000000081526004016106dc90612b81565b60405180910390fd5b8073ffffffffffffffffffffffffffffffffffffffff16610704611809565b73ffffffffffffffffffffffffffffffffffffffff16148061073357506107328161072d611809565b61167f565b5b610772576040517f08c379a000000000000000000000000000000000000000000000000000000000815260040161076990612c13565b60405180910390fd5b61077c8383611811565b505050565b61079261078c611809565b826118ca565b6107d1576040517f08c379a00000000000000000000000000000000000000000000000000000000081526004016107c890612ca5565b60405180910390fd5b6107dc8383836119a8565b505050565b60075481565b60096020528060005260406000206000915090508060000154908060010160009054906101000a900473ffffffffffffffffffffffffffffffffffffffff169080600201805461083690612a4b565b80601f016020809104026020016040519081016040528092919081815260200182805461086290612a4b565b80156108af5780601f10610884576101008083540402835291602001916108af565b820191906000526020600020905b81548152906001019060200180831161089257829003601f168201915b5050505050905083565b60001515600b600083815260200190815260200160002060009054906101000a900460ff161515146108ea57600080fd5b6108f5838383611c04565b505050565b6000806002600084815260200190815260200160002060009054906101000a900473ffffffffffffffffffffffffffffffffffffffff169050600073ffffffffffffffffffffffffffffffffffffffff168173ffffffffffffffffffffffffffffffffffffffff1614156109a3576040517f08c379a000000000000000000000000000000000000000000000000000000000815260040161099a90612d37565b60405180910390fd5b80915050919050565b60005b6006548111610bd9573373ffffffffffffffffffffffffffffffffffffffff166009600083815260200190815260200160002060010160009054906101000a900473ffffffffffffffffffffffffffffffffffffffff1673ffffffffffffffffffffffffffffffffffffffff161415610bc6576009600082815260200190815260200160002060010160009054906101000a900473ffffffffffffffffffffffffffffffffffffffff1673ffffffffffffffffffffffffffffffffffffffff163373ffffffffffffffffffffffffffffffffffffffff1614610ac6576040517f08c379a0000000000000000000000000000000000000000000000000000000008152600401610abd90612da3565b60405180910390fd5b60076000815480929190610ad990612df2565b91905055506040518060800160405280600754815260200185815260200184815260200183815250600a60006007548152602001908152602001600020600082015181600001556020820151816001019080519060200190610b3c929190612166565b506040820151816002019080519060200190610b59929190612166565b506060820151816003019080519060200190610b76929190612166565b50905050610b8685600754611c24565b7fdd9dd323e29f8cd59a49751518bc080d5f1dfea3b949fbea9b257215a4e4fc6c600754858585604051610bbd9493929190612982565b60405180910390a15b8080610bd190612df2565b9150506109af565b5050505050565b60008073ffffffffffffffffffffffffffffffffffffffff168273ffffffffffffffffffffffffffffffffffffffff161415610c51576040517f08c379a0000000000000000000000000000000000000000000000000000000008152600401610c4890612ead565b60405180910390fd5b600360008373ffffffffffffffffffffffffffffffffffffffff1673ffffffffffffffffffffffffffffffffffffffff168152602001908152602001600020549050919050565b606060018054610ca790612a4b565b80601f0160208091040260200160405190810160405280929190818152602001828054610cd390612a4b565b8015610d205780601f10610cf557610100808354040283529160200191610d20565b820191906000526020600020905b815481529060010190602001808311610d0357829003601f168201915b5050505050905090565b610d32611809565b73ffffffffffffffffffffffffffffffffffffffff168273ffffffffffffffffffffffffffffffffffffffff161415610da0576040517f08c379a0000000000000000000000000000000000000000000000000000000008152600401610d9790612f19565b60405180910390fd5b8060056000610dad611809565b73ffffffffffffffffffffffffffffffffffffffff1673ffffffffffffffffffffffffffffffffffffffff16815260200190815260200160002060008473ffffffffffffffffffffffffffffffffffffffff1673ffffffffffffffffffffffffffffffffffffffff16815260200190815260200160002060006101000a81548160ff0219169083151502179055508173ffffffffffffffffffffffffffffffffffffffff16610e5a611809565b73ffffffffffffffffffffffffffffffffffffffff167f17307eab39ab6107e8899845ad3d59bd9653f200f220920489ca2b5937696c3183604051610e9f91906122bd565b60405180910390a35050565b610ebc610eb6611809565b836118ca565b610efb576040517f08c379a0000000000000000000000000000000000000000000000000000000008152600401610ef290612ca5565b60405180910390fd5b610f0784848484611df2565b50505050565b60005b6006548111611067573373ffffffffffffffffffffffffffffffffffffffff166009600083815260200190815260200160002060010160009054906101000a900473ffffffffffffffffffffffffffffffffffffffff1673ffffffffffffffffffffffffffffffffffffffff161415611054576009600082815260200190815260200160002060010160009054906101000a900473ffffffffffffffffffffffffffffffffffffffff1673ffffffffffffffffffffffffffffffffffffffff163373ffffffffffffffffffffffffffffffffffffffff1614611027576040517f08c379a000000000000000000000000000000000000000000000000000000000815260040161101e90612da3565b60405180910390fd5b6001600b600084815260200190815260200160002060006101000a81548160ff0219169083151502179055505b808061105f90612df2565b915050610f10565b5050565b60606110768261179d565b6110b5576040517f08c379a00000000000000000000000000000000000000000000000000000000081526004016110ac90612fab565b60405180910390fd5b60006110bf611e4e565b905060008151116110df576040518060200160405280600081525061110a565b806110e984611e65565b6040516020016110fa929190613007565b6040516020818303038152906040525b915050919050565b60005b600654811161134e573373ffffffffffffffffffffffffffffffffffffffff166009600083815260200190815260200160002060010160009054906101000a900473ffffffffffffffffffffffffffffffffffffffff1673ffffffffffffffffffffffffffffffffffffffff16141561133b576009600082815260200190815260200160002060010160009054906101000a900473ffffffffffffffffffffffffffffffffffffffff1673ffffffffffffffffffffffffffffffffffffffff163373ffffffffffffffffffffffffffffffffffffffff161461122c576040517f08c379a000000000000000000000000000000000000000000000000000000000815260040161122390613077565b60405180910390fd5b6006600081548092919061123f90612df2565b9190505550604051806060016040528060065481526020018473ffffffffffffffffffffffffffffffffffffffff168152602001838152506009600060065481526020019081526020016000206000820151816000015560208201518160010160006101000a81548173ffffffffffffffffffffffffffffffffffffffff021916908373ffffffffffffffffffffffffffffffffffffffff16021790555060408201518160020190805190602001906112f9929190612166565b509050507fef378b7ae33a273f09c904a9a8601d264935a173fd8aa7a9b00b89839df7fa6e60065484846040516113329392919061253b565b60405180910390a15b808061134690612df2565b915050611115565b505050565b600a60205280600052604060002060009150905080600001549080600101805461137c90612a4b565b80601f01602080910402602001604051908101604052809291908181526020018280546113a890612a4b565b80156113f55780601f106113ca576101008083540402835291602001916113f5565b820191906000526020600020905b8154815290600101906020018083116113d857829003601f168201915b50505050509080600201805461140a90612a4b565b80601f016020809104026020016040519081016040528092919081815260200182805461143690612a4b565b80156114835780601f1061145857610100808354040283529160200191611483565b820191906000526020600020905b81548152906001019060200180831161146657829003601f168201915b50505050509080600301805461149890612a4b565b80601f01602080910402602001604051908101604052809291908181526020018280546114c490612a4b565b80156115115780601f106114e657610100808354040283529160200191611511565b820191906000526020600020905b8154815290600101906020018083116114f457829003601f168201915b5050505050905084565b60065481565b60005b600654811161167b573373ffffffffffffffffffffffffffffffffffffffff166009600083815260200190815260200160002060010160009054906101000a900473ffffffffffffffffffffffffffffffffffffffff1673ffffffffffffffffffffffffffffffffffffffff161415611668576009600082815260200190815260200160002060010160009054906101000a900473ffffffffffffffffffffffffffffffffffffffff1673ffffffffffffffffffffffffffffffffffffffff163373ffffffffffffffffffffffffffffffffffffffff161461163b576040517f08c379a000000000000000000000000000000000000000000000000000000000815260040161163290612da3565b60405180910390fd5b6000600b600084815260200190815260200160002060006101000a81548160ff0219169083151502179055505b808061167390612df2565b915050611524565b5050565b6000600560008473ffffffffffffffffffffffffffffffffffffffff1673ffffffffffffffffffffffffffffffffffffffff16815260200190815260200160002060008373ffffffffffffffffffffffffffffffffffffffff1673ffffffffffffffffffffffffffffffffffffffff16815260200190815260200160002060009054906101000a900460ff16905092915050565b600b6020528060005260406000206000915054906101000a900460ff1681565b60007f01ffc9a7000000000000000000000000000000000000000000000000000000007bffffffffffffffffffffffffffffffffffffffffffffffffffffffff1916827bffffffffffffffffffffffffffffffffffffffffffffffffffffffff1916149050919050565b60008073ffffffffffffffffffffffffffffffffffffffff166002600084815260200190815260200160002060009054906101000a900473ffffffffffffffffffffffffffffffffffffffff1673ffffffffffffffffffffffffffffffffffffffff1614159050919050565b600033905090565b816004600083815260200190815260200160002060006101000a81548173ffffffffffffffffffffffffffffffffffffffff021916908373ffffffffffffffffffffffffffffffffffffffff160217905550808273ffffffffffffffffffffffffffffffffffffffff16611884836108fa565b73ffffffffffffffffffffffffffffffffffffffff167f8c5be1e5ebec7d5bd14f71427d1e84f3dd0314c0f7b2291e5b200ac8c7c3b92560405160405180910390a45050565b60006118d58261179d565b611914576040517f08c379a000000000000000000000000000000000000000000000000000000000815260040161190b90613109565b60405180910390fd5b600061191f836108fa565b90508073ffffffffffffffffffffffffffffffffffffffff168473ffffffffffffffffffffffffffffffffffffffff16148061198e57508373ffffffffffffffffffffffffffffffffffffffff16611976846105e4565b73ffffffffffffffffffffffffffffffffffffffff16145b8061199f575061199e818561167f565b5b91505092915050565b8273ffffffffffffffffffffffffffffffffffffffff166119c8826108fa565b73ffffffffffffffffffffffffffffffffffffffff1614611a1e576040517f08c379a0000000000000000000000000000000000000000000000000000000008152600401611a159061319b565b60405180910390fd5b600073ffffffffffffffffffffffffffffffffffffffff168273ffffffffffffffffffffffffffffffffffffffff161415611a8e576040517f08c379a0000000000000000000000000000000000000000000000000000000008152600401611a859061322d565b60405180910390fd5b611a99838383611fc6565b611aa4600082611811565b6001600360008573ffffffffffffffffffffffffffffffffffffffff1673ffffffffffffffffffffffffffffffffffffffff1681526020019081526020016000206000828254611af4919061324d565b925050819055506001600360008473ffffffffffffffffffffffffffffffffffffffff1673ffffffffffffffffffffffffffffffffffffffff1681526020019081526020016000206000828254611b4b9190613281565b92505081905550816002600083815260200190815260200160002060006101000a81548173ffffffffffffffffffffffffffffffffffffffff021916908373ffffffffffffffffffffffffffffffffffffffff160217905550808273ffffffffffffffffffffffffffffffffffffffff168473ffffffffffffffffffffffffffffffffffffffff167fddf252ad1be2c89b69c2b068fc378daa952ba7f163c4a11628f55a4df523b3ef60405160405180910390a4505050565b611c1f83838360405180602001604052806000815250610eab565b505050565b600073ffffffffffffffffffffffffffffffffffffffff168273ffffffffffffffffffffffffffffffffffffffff161415611c94576040517f08c379a0000000000000000000000000000000000000000000000000000000008152600401611c8b90613323565b60405180910390fd5b611c9d8161179d565b15611cdd576040517f08c379a0000000000000000000000000000000000000000000000000000000008152600401611cd49061338f565b60405180910390fd5b611ce960008383611fc6565b6001600360008473ffffffffffffffffffffffffffffffffffffffff1673ffffffffffffffffffffffffffffffffffffffff1681526020019081526020016000206000828254611d399190613281565b92505081905550816002600083815260200190815260200160002060006101000a81548173ffffffffffffffffffffffffffffffffffffffff021916908373ffffffffffffffffffffffffffffffffffffffff160217905550808273ffffffffffffffffffffffffffffffffffffffff16600073ffffffffffffffffffffffffffffffffffffffff167fddf252ad1be2c89b69c2b068fc378daa952ba7f163c4a11628f55a4df523b3ef60405160405180910390a45050565b611dfd8484846119a8565b611e0984848484611fcb565b611e48576040517f08c379a0000000000000000000000000000000000000000000000000000000008152600401611e3f90613421565b60405180910390fd5b50505050565b606060405180602001604052806000815250905090565b60606000821415611ead576040518060400160405280600181526020017f30000000000000000000000000000000000000000000000000000000000000008152509050611fc1565b600082905060005b60008214611edf578080611ec890612df2565b915050600a82611ed89190613470565b9150611eb5565b60008167ffffffffffffffff811115611efb57611efa612583565b5b6040519080825280601f01601f191660200182016040528015611f2d5781602001600182028036833780820191505090505b5090505b60008514611fba57600182611f46919061324d565b9150600a85611f5591906134a1565b6030611f619190613281565b60f81b818381518110611f7757611f766134d2565b5b60200101907effffffffffffffffffffffffffffffffffffffffffffffffffffffffffffff1916908160001a905350600a85611fb39190613470565b9450611f31565b8093505050505b919050565b505050565b6000611fec8473ffffffffffffffffffffffffffffffffffffffff16612153565b15612146578373ffffffffffffffffffffffffffffffffffffffff1663150b7a02612015611809565b8786866040518563ffffffff1660e01b81526004016120379493929190613556565b6020604051808303816000875af192505050801561207357506040513d601f19601f8201168201806040525081019061207091906135b7565b60015b6120f6573d80600081146120a3576040519150601f19603f3d011682016040523d82523d6000602084013e6120a8565b606091505b506000815114156120ee576040517f08c379a00000000000000000000000000000000000000000000000000000000081526004016120e590613421565b60405180910390fd5b805181602001fd5b63150b7a0260e01b7bffffffffffffffffffffffffffffffffffffffffffffffffffffffff1916817bffffffffffffffffffffffffffffffffffffffffffffffffffffffff19161491505061214b565b600190505b949350505050565b600080823b905060008111915050919050565b82805461217290612a4b565b90600052602060002090601f01602090048101928261219457600085556121db565b82601f106121ad57805160ff19168380011785556121db565b828001600101855582156121db579182015b828111156121da5782518255916020019190600101906121bf565b5b5090506121e891906121ec565b5090565b5b808211156122055760008160009055506001016121ed565b5090565b6000604051905090565b600080fd5b600080fd5b60007fffffffff0000000000000000000000000000000000000000000000000000000082169050919050565b6122528161221d565b811461225d57600080fd5b50565b60008135905061226f81612249565b92915050565b60006020828403121561228b5761228a612213565b5b600061229984828501612260565b91505092915050565b60008115159050919050565b6122b7816122a2565b82525050565b60006020820190506122d260008301846122ae565b92915050565b600081519050919050565b600082825260208201905092915050565b60005b838110156123125780820151818401526020810190506122f7565b83811115612321576000848401525b50505050565b6000601f19601f8301169050919050565b6000612343826122d8565b61234d81856122e3565b935061235d8185602086016122f4565b61236681612327565b840191505092915050565b6000602082019050818103600083015261238b8184612338565b905092915050565b6000819050919050565b6123a681612393565b81146123b157600080fd5b50565b6000813590506123c38161239d565b92915050565b6000602082840312156123df576123de612213565b5b60006123ed848285016123b4565b91505092915050565b600073ffffffffffffffffffffffffffffffffffffffff82169050919050565b6000612421826123f6565b9050919050565b61243181612416565b82525050565b600060208201905061244c6000830184612428565b92915050565b61245b81612416565b811461246657600080fd5b50565b60008135905061247881612452565b92915050565b6000806040838503121561249557612494612213565b5b60006124a385828601612469565b92505060206124b4858286016123b4565b9150509250929050565b6000806000606084860312156124d7576124d6612213565b5b60006124e586828701612469565b93505060206124f686828701612469565b9250506040612507868287016123b4565b9150509250925092565b61251a81612393565b82525050565b60006020820190506125356000830184612511565b92915050565b60006060820190506125506000830186612511565b61255d6020830185612428565b818103604083015261256f8184612338565b9050949350505050565b600080fd5b600080fd5b7f4e487b7100000000000000000000000000000000000000000000000000000000600052604160045260246000fd5b6125bb82612327565b810181811067ffffffffffffffff821117156125da576125d9612583565b5b80604052505050565b60006125ed612209565b90506125f982826125b2565b919050565b600067ffffffffffffffff82111561261957612618612583565b5b61262282612327565b9050602081019050919050565b82818337600083830152505050565b600061265161264c846125fe565b6125e3565b90508281526020810184848401111561266d5761266c61257e565b5b61267884828561262f565b509392505050565b600082601f83011261269557612694612579565b5b81356126a584826020860161263e565b91505092915050565b600080600080608085870312156126c8576126c7612213565b5b60006126d687828801612469565b945050602085013567ffffffffffffffff8111156126f7576126f6612218565b5b61270387828801612680565b935050604085013567ffffffffffffffff81111561272457612723612218565b5b61273087828801612680565b925050606085013567ffffffffffffffff81111561275157612750612218565b5b61275d87828801612680565b91505092959194509250565b60006020828403121561277f5761277e612213565b5b600061278d84828501612469565b91505092915050565b61279f816122a2565b81146127aa57600080fd5b50565b6000813590506127bc81612796565b92915050565b600080604083850312156127d9576127d8612213565b5b60006127e785828601612469565b92505060206127f8858286016127ad565b9150509250929050565b600067ffffffffffffffff82111561281d5761281c612583565b5b61282682612327565b9050602081019050919050565b600061284661284184612802565b6125e3565b9050828152602081018484840111156128625761286161257e565b5b61286d84828561262f565b509392505050565b600082601f83011261288a57612889612579565b5b813561289a848260208601612833565b91505092915050565b600080600080608085870312156128bd576128bc612213565b5b60006128cb87828801612469565b94505060206128dc87828801612469565b93505060406128ed878288016123b4565b925050606085013567ffffffffffffffff81111561290e5761290d612218565b5b61291a87828801612875565b91505092959194509250565b6000806040838503121561293d5761293c612213565b5b600061294b85828601612469565b925050602083013567ffffffffffffffff81111561296c5761296b612218565b5b61297885828601612680565b9150509250929050565b60006080820190506129976000830187612511565b81810360208301526129a98186612338565b905081810360408301526129bd8185612338565b905081810360608301526129d18184612338565b905095945050505050565b600080604083850312156129f3576129f2612213565b5b6000612a0185828601612469565b9250506020612a1285828601612469565b9150509250929050565b7f4e487b7100000000000000000000000000000000000000000000000000000000600052602260045260246000fd5b60006002820490506001821680612a6357607f821691505b60208210811415612a7757612a76612a1c565b5b50919050565b7f4552433732313a20617070726f76656420717565727920666f72206e6f6e657860008201527f697374656e7420746f6b656e0000000000000000000000000000000000000000602082015250565b6000612ad9602c836122e3565b9150612ae482612a7d565b604082019050919050565b60006020820190508181036000830152612b0881612acc565b9050919050565b7f4552433732313a20617070726f76616c20746f2063757272656e74206f776e6560008201527f7200000000000000000000000000000000000000000000000000000000000000602082015250565b6000612b6b6021836122e3565b9150612b7682612b0f565b604082019050919050565b60006020820190508181036000830152612b9a81612b5e565b9050919050565b7f4552433732313a20617070726f76652063616c6c6572206973206e6f74206f7760008201527f6e6572206e6f7220617070726f76656420666f7220616c6c0000000000000000602082015250565b6000612bfd6038836122e3565b9150612c0882612ba1565b604082019050919050565b60006020820190508181036000830152612c2c81612bf0565b9050919050565b7f4552433732313a207472616e736665722063616c6c6572206973206e6f74206f60008201527f776e6572206e6f7220617070726f766564000000000000000000000000000000602082015250565b6000612c8f6031836122e3565b9150612c9a82612c33565b604082019050919050565b60006020820190508181036000830152612cbe81612c82565b9050919050565b7f4552433732313a206f776e657220717565727920666f72206e6f6e657869737460008201527f656e7420746f6b656e0000000000000000000000000000000000000000000000602082015250565b6000612d216029836122e3565b9150612d2c82612cc5565b604082019050919050565b60006020820190508181036000830152612d5081612d14565b9050919050565b7f596f7520617265206e6f74204f776e6572210000000000000000000000000000600082015250565b6000612d8d6012836122e3565b9150612d9882612d57565b602082019050919050565b60006020820190508181036000830152612dbc81612d80565b9050919050565b7f4e487b7100000000000000000000000000000000000000000000000000000000600052601160045260246000fd5b6000612dfd82612393565b91507fffffffffffffffffffffffffffffffffffffffffffffffffffffffffffffffff821415612e3057612e2f612dc3565b5b600182019050919050565b7f4552433732313a2062616c616e636520717565727920666f7220746865207a6560008201527f726f206164647265737300000000000000000000000000000000000000000000602082015250565b6000612e97602a836122e3565b9150612ea282612e3b565b604082019050919050565b60006020820190508181036000830152612ec681612e8a565b9050919050565b7f4552433732313a20617070726f766520746f2063616c6c657200000000000000600082015250565b6000612f036019836122e3565b9150612f0e82612ecd565b602082019050919050565b60006020820190508181036000830152612f3281612ef6565b9050919050565b7f4552433732314d657461646174613a2055524920717565727920666f72206e6f60008201527f6e6578697374656e7420746f6b656e0000000000000000000000000000000000602082015250565b6000612f95602f836122e3565b9150612fa082612f39565b604082019050919050565b60006020820190508181036000830152612fc481612f88565b9050919050565b600081905092915050565b6000612fe1826122d8565b612feb8185612fcb565b9350612ffb8185602086016122f4565b80840191505092915050565b60006130138285612fd6565b915061301f8284612fd6565b91508190509392505050565b7f596f75206e6f74206372656174652041646d696e000000000000000000000000600082015250565b60006130616014836122e3565b915061306c8261302b565b602082019050919050565b6000602082019050818103600083015261309081613054565b9050919050565b7f4552433732313a206f70657261746f7220717565727920666f72206e6f6e657860008201527f697374656e7420746f6b656e0000000000000000000000000000000000000000602082015250565b60006130f3602c836122e3565b91506130fe82613097565b604082019050919050565b60006020820190508181036000830152613122816130e6565b9050919050565b7f4552433732313a207472616e73666572206f6620746f6b656e2074686174206960008201527f73206e6f74206f776e0000000000000000000000000000000000000000000000602082015250565b60006131856029836122e3565b915061319082613129565b604082019050919050565b600060208201905081810360008301526131b481613178565b9050919050565b7f4552433732313a207472616e7366657220746f20746865207a65726f2061646460008201527f7265737300000000000000000000000000000000000000000000000000000000602082015250565b60006132176024836122e3565b9150613222826131bb565b604082019050919050565b600060208201905081810360008301526132468161320a565b9050919050565b600061325882612393565b915061326383612393565b92508282101561327657613275612dc3565b5b828203905092915050565b600061328c82612393565b915061329783612393565b9250827fffffffffffffffffffffffffffffffffffffffffffffffffffffffffffffffff038211156132cc576132cb612dc3565b5b828201905092915050565b7f4552433732313a206d696e7420746f20746865207a65726f2061646472657373600082015250565b600061330d6020836122e3565b9150613318826132d7565b602082019050919050565b6000602082019050818103600083015261333c81613300565b9050919050565b7f4552433732313a20746f6b656e20616c7265616479206d696e74656400000000600082015250565b6000613379601c836122e3565b915061338482613343565b602082019050919050565b600060208201905081810360008301526133a88161336c565b9050919050565b7f4552433732313a207472616e7366657220746f206e6f6e20455243373231526560008201527f63656976657220696d706c656d656e7465720000000000000000000000000000602082015250565b600061340b6032836122e3565b9150613416826133af565b604082019050919050565b6000602082019050818103600083015261343a816133fe565b9050919050565b7f4e487b7100000000000000000000000000000000000000000000000000000000600052601260045260246000fd5b600061347b82612393565b915061348683612393565b92508261349657613495613441565b5b828204905092915050565b60006134ac82612393565b91506134b783612393565b9250826134c7576134c6613441565b5b828206905092915050565b7f4e487b7100000000000000000000000000000000000000000000000000000000600052603260045260246000fd5b600081519050919050565b600082825260208201905092915050565b600061352882613501565b613532818561350c565b93506135428185602086016122f4565b61354b81612327565b840191505092915050565b600060808201905061356b6000830187612428565b6135786020830186612428565b6135856040830185612511565b8181036060830152613597818461351d565b905095945050505050565b6000815190506135b181612249565b92915050565b6000602082840312156135cd576135cc612213565b5b60006135db848285016135a2565b9150509291505056fea2646970667358221220ae60091fa02116908455aa65a97d46d44ca3036de7ed49dc2fe77264942bf2be64736f6c634300080b0033",
  "immutableReferences": {},
  "source": "// SPDX-License-Identifier: MIT\npragma solidity >=0.4.22 <0.9.0;\n\nimport \"../node_modules/@openzeppelin/contracts/token/ERC721/ERC721.sol\";\n\ncontract CowCoin is ERC721 {\n    \n    // Permission address at create Certificate and send new cert to Customers.\n    uint public goverCount = 0;\n    uint public cowCertCount = 0;\n    \n    address [] government;\n    \n    struct AdAdmin{\n        uint256 userId;\n        address government;\n        string username;\n    }\n    \n    struct AddCertCoin {\n        uint256 id;\n        string tokendId;\n        string cowCertlist;\n        string imgPath;\n    }\n    \n    mapping(uint256 => AdAdmin) public taskcows;\n    mapping(uint256 => AddCertCoin) public blacklistedCowCert;\n    mapping(uint256 => bool) public blockCowcert;\n    // mapping(uint256 => bool) internal blockCowcert;\n\n   \n    \n    constructor()   \n    ERC721(\"SmartCowcert\",\"SMARTCOWCERT\")\n    {\n        taskcows[goverCount] = AdAdmin(goverCount,msg.sender,\"Suradath\");\n    }\n\n    modifier onlyGovernment() {\n          for(uint i = 0; i <= goverCount; i++)\n        {\n            if(taskcows[i].government == msg.sender)\n            {\n                require(msg.sender == taskcows[i].government ,\"You are not Owner!\");\n                _;\n            }\n        }\n        // require(msg.sender == taskcows[goverCount].government ,\"You are not Owner!\");\n        // _;\n    }\n\n    event TaskCreatedadmin(\n        uint256 userId,\n        address government,\n        string username\n    );\n    event TaskCreateCowCert(\n        uint256 id,\n        string tokendid,\n        string cowCertlist,\n        string imgPath\n    );\n    \n    // Add admin address by governments add to admin\n    function addAdmin(address _government,string memory _username) public {\n        // require(msg.sender == taskcows[goverCount].government,\"You not create Admin\");\n        for(uint256 i = 0; i <= goverCount; i++)\n        {\n            if(taskcows[i].government == msg.sender)\n            {\n                require(msg.sender == taskcows[i].government,\"You not create Admin\");\n                goverCount++;\n                taskcows[goverCount] = AdAdmin(goverCount,_government,_username);\n                emit TaskCreatedadmin(goverCount,_government,_username);\n            }        \n        }\n        \n    }\n    \n    function tokenizedCowCert(address _realEstateOwner, string memory _tokenId,string memory _cowCertlist,string memory _imgPath)\n        public\n        onlyGovernment\n    {\n        cowCertCount++;\n        blacklistedCowCert[cowCertCount] = AddCertCoin(cowCertCount,_tokenId,_cowCertlist,_imgPath);\n        // super._mint(_realEstateOwner, _tokenId);\n        super._mint(_realEstateOwner,cowCertCount);\n        emit TaskCreateCowCert(cowCertCount,_tokenId,_cowCertlist,_imgPath);\n    }\n\n    // function getTokenizedCowCer(uint256 _id) public view returns(uint256,uint256,string memory,string memory){\n    //     return blacklistedCowCert(_id);\n    // }\n\n    // Stop or block Cowcoin Nft from buying or selling.\n    function disableTransfer(uint256 _tokenId) public onlyGovernment {\n        blockCowcert[_tokenId] = true;\n    }\n    \n    function enableTransfer(uint256 _tokenId) public onlyGovernment {\n        blockCowcert[_tokenId] = false;\n    }\n\n    // Setup sell  Customer Payment to sell  Customer type P2P \n    function safeTransferFrom(\n        address _from,\n        address _to,\n        uint256 _tokenId\n    ) public virtual override {\n        require(blockCowcert[_tokenId] == false);\n        super.safeTransferFrom(_from, _to, _tokenId);\n    }\n\n}",
  "sourcePath": "/Users/noobtoninja/Job/Programe/NFTv2/contracts/CowCoin.sol",
  "compiler": {
    "name": "solc",
    "version": "0.8.11+commit.d7f03943.Emscripten.clang"
  },
  "schemaVersion": "3.4.3",
  "updatedAt": "2022-01-14T06:48:48.091Z",
  "networkType": "ethereum",
  "devdoc": {
    "kind": "dev",
    "methods": {
      "approve(address,uint256)": {
        "details": "See {IERC721-approve}."
      },
      "balanceOf(address)": {
        "details": "See {IERC721-balanceOf}."
      },
      "getApproved(uint256)": {
        "details": "See {IERC721-getApproved}."
      },
      "isApprovedForAll(address,address)": {
        "details": "See {IERC721-isApprovedForAll}."
      },
      "name()": {
        "details": "See {IERC721Metadata-name}."
      },
      "ownerOf(uint256)": {
        "details": "See {IERC721-ownerOf}."
      },
      "safeTransferFrom(address,address,uint256,bytes)": {
        "details": "See {IERC721-safeTransferFrom}."
      },
      "setApprovalForAll(address,bool)": {
        "details": "See {IERC721-setApprovalForAll}."
      },
      "supportsInterface(bytes4)": {
        "details": "See {IERC165-supportsInterface}."
      },
      "symbol()": {
        "details": "See {IERC721Metadata-symbol}."
      },
      "tokenURI(uint256)": {
        "details": "See {IERC721Metadata-tokenURI}."
      },
      "transferFrom(address,address,uint256)": {
        "details": "See {IERC721-transferFrom}."
      }
    },
    "version": 1
  },
  "userdoc": {
    "kind": "user",
    "methods": {},
    "version": 1
  }
}