{
  "contractName": "CowCoin",
  "abi": [
    {
      "inputs": [],
      "stateMutability": "nonpayable",
      "type": "constructor"
    },
    {
      "anonymous": false,
      "inputs": [
        {
          "indexed": true,
          "internalType": "address",
          "name": "owner",
          "type": "address"
        },
        {
          "indexed": true,
          "internalType": "address",
          "name": "approved",
          "type": "address"
        },
        {
          "indexed": true,
          "internalType": "uint256",
          "name": "tokenId",
          "type": "uint256"
        }
      ],
      "name": "Approval",
      "type": "event"
    },
    {
      "anonymous": false,
      "inputs": [
        {
          "indexed": true,
          "internalType": "address",
          "name": "owner",
          "type": "address"
        },
        {
          "indexed": true,
          "internalType": "address",
          "name": "operator",
          "type": "address"
        },
        {
          "indexed": false,
          "internalType": "bool",
          "name": "approved",
          "type": "bool"
        }
      ],
      "name": "ApprovalForAll",
      "type": "event"
    },
    {
      "anonymous": false,
      "inputs": [
        {
          "indexed": false,
          "internalType": "uint256",
          "name": "id",
          "type": "uint256"
        },
        {
          "indexed": false,
          "internalType": "string",
          "name": "tokendid",
          "type": "string"
        },
        {
          "indexed": false,
          "internalType": "string",
          "name": "cowCertlist",
          "type": "string"
        },
        {
          "indexed": false,
          "internalType": "string",
          "name": "imgPath",
          "type": "string"
        }
      ],
      "name": "TaskCreateCowCert",
      "type": "event"
    },
    {
      "anonymous": false,
      "inputs": [
        {
          "indexed": false,
          "internalType": "uint256",
          "name": "userId",
          "type": "uint256"
        },
        {
          "indexed": false,
          "internalType": "address",
          "name": "government",
          "type": "address"
        },
        {
          "indexed": false,
          "internalType": "string",
          "name": "username",
          "type": "string"
        }
      ],
      "name": "TaskCreatedadmin",
      "type": "event"
    },
    {
      "anonymous": false,
      "inputs": [
        {
          "indexed": true,
          "internalType": "address",
          "name": "from",
          "type": "address"
        },
        {
          "indexed": true,
          "internalType": "address",
          "name": "to",
          "type": "address"
        },
        {
          "indexed": true,
          "internalType": "uint256",
          "name": "tokenId",
          "type": "uint256"
        }
      ],
      "name": "Transfer",
      "type": "event"
    },
    {
      "inputs": [
        {
          "internalType": "address",
          "name": "to",
          "type": "address"
        },
        {
          "internalType": "uint256",
          "name": "tokenId",
          "type": "uint256"
        }
      ],
      "name": "approve",
      "outputs": [],
      "stateMutability": "nonpayable",
      "type": "function"
    },
    {
      "inputs": [
        {
          "internalType": "address",
          "name": "owner",
          "type": "address"
        }
      ],
      "name": "balanceOf",
      "outputs": [
        {
          "internalType": "uint256",
          "name": "",
          "type": "uint256"
        }
      ],
      "stateMutability": "view",
      "type": "function",
      "constant": true
    },
    {
      "inputs": [
        {
          "internalType": "uint256",
          "name": "",
          "type": "uint256"
        }
      ],
      "name": "blacklistedCowCert",
      "outputs": [
        {
          "internalType": "uint256",
          "name": "id",
          "type": "uint256"
        },
        {
          "internalType": "string",
          "name": "tokendId",
          "type": "string"
        },
        {
          "internalType": "string",
          "name": "cowCertlist",
          "type": "string"
        },
        {
          "internalType": "string",
          "name": "imgPath",
          "type": "string"
        }
      ],
      "stateMutability": "view",
      "type": "function",
      "constant": true
    },
    {
      "inputs": [],
      "name": "cowCertCount",
      "outputs": [
        {
          "internalType": "uint256",
          "name": "",
          "type": "uint256"
        }
      ],
      "stateMutability": "view",
      "type": "function",
      "constant": true
    },
    {
      "inputs": [
        {
          "internalType": "uint256",
          "name": "tokenId",
          "type": "uint256"
        }
      ],
      "name": "getApproved",
      "outputs": [
        {
          "internalType": "address",
          "name": "",
          "type": "address"
        }
      ],
      "stateMutability": "view",
      "type": "function",
      "constant": true
    },
    {
      "inputs": [],
      "name": "goverCount",
      "outputs": [
        {
          "internalType": "uint256",
          "name": "",
          "type": "uint256"
        }
      ],
      "stateMutability": "view",
      "type": "function",
      "constant": true
    },
    {
      "inputs": [
        {
          "internalType": "address",
          "name": "owner",
          "type": "address"
        },
        {
          "internalType": "address",
          "name": "operator",
          "type": "address"
        }
      ],
      "name": "isApprovedForAll",
      "outputs": [
        {
          "internalType": "bool",
          "name": "",
          "type": "bool"
        }
      ],
      "stateMutability": "view",
      "type": "function",
      "constant": true
    },
    {
      "inputs": [],
      "name": "name",
      "outputs": [
        {
          "internalType": "string",
          "name": "",
          "type": "string"
        }
      ],
      "stateMutability": "view",
      "type": "function",
      "constant": true
    },
    {
      "inputs": [
        {
          "internalType": "uint256",
          "name": "tokenId",
          "type": "uint256"
        }
      ],
      "name": "ownerOf",
      "outputs": [
        {
          "internalType": "address",
          "name": "",
          "type": "address"
        }
      ],
      "stateMutability": "view",
      "type": "function",
      "constant": true
    },
    {
      "inputs": [
        {
          "internalType": "address",
          "name": "operator",
          "type": "address"
        },
        {
          "internalType": "bool",
          "name": "approved",
          "type": "bool"
        }
      ],
      "name": "setApprovalForAll",
      "outputs": [],
      "stateMutability": "nonpayable",
      "type": "function"
    },
    {
      "inputs": [
        {
          "internalType": "bytes4",
          "name": "interfaceId",
          "type": "bytes4"
        }
      ],
      "name": "supportsInterface",
      "outputs": [
        {
          "internalType": "bool",
          "name": "",
          "type": "bool"
        }
      ],
      "stateMutability": "view",
      "type": "function",
      "constant": true
    },
    {
      "inputs": [],
      "name": "symbol",
      "outputs": [
        {
          "internalType": "string",
          "name": "",
          "type": "string"
        }
      ],
      "stateMutability": "view",
      "type": "function",
      "constant": true
    },
    {
      "inputs": [
        {
          "internalType": "uint256",
          "name": "",
          "type": "uint256"
        }
      ],
      "name": "taskcows",
      "outputs": [
        {
          "internalType": "uint256",
          "name": "userId",
          "type": "uint256"
        },
        {
          "internalType": "address",
          "name": "government",
          "type": "address"
        },
        {
          "internalType": "string",
          "name": "username",
          "type": "string"
        }
      ],
      "stateMutability": "view",
      "type": "function",
      "constant": true
    },
    {
      "inputs": [
        {
          "internalType": "uint256",
          "name": "tokenId",
          "type": "uint256"
        }
      ],
      "name": "tokenURI",
      "outputs": [
        {
          "internalType": "string",
          "name": "",
          "type": "string"
        }
      ],
      "stateMutability": "view",
      "type": "function",
      "constant": true
    },
    {
      "inputs": [
        {
          "internalType": "address",
          "name": "from",
          "type": "address"
        },
        {
          "internalType": "address",
          "name": "to",
          "type": "address"
        },
        {
          "internalType": "uint256",
          "name": "tokenId",
          "type": "uint256"
        }
      ],
      "name": "transferFrom",
      "outputs": [],
      "stateMutability": "nonpayable",
      "type": "function"
    },
    {
      "inputs": [
        {
          "internalType": "address",
          "name": "_government",
          "type": "address"
        },
        {
          "internalType": "string",
          "name": "_username",
          "type": "string"
        }
      ],
      "name": "addAdmin",
      "outputs": [],
      "stateMutability": "nonpayable",
      "type": "function"
    },
    {
      "inputs": [
        {
          "internalType": "address",
          "name": "_realEstateOwner",
          "type": "address"
        },
        {
          "internalType": "string",
          "name": "_tokenId",
          "type": "string"
        },
        {
          "internalType": "string",
          "name": "_cowCertlist",
          "type": "string"
        },
        {
          "internalType": "string",
          "name": "_imgPath",
          "type": "string"
        }
      ],
      "name": "tokenizedCowCert",
      "outputs": [],
      "stateMutability": "nonpayable",
      "type": "function"
    },
    {
      "inputs": [
        {
          "internalType": "uint256",
          "name": "_tokenId",
          "type": "uint256"
        }
      ],
      "name": "disableTransfer",
      "outputs": [],
      "stateMutability": "nonpayable",
      "type": "function"
    },
    {
      "inputs": [
        {
          "internalType": "uint256",
          "name": "_tokenId",
          "type": "uint256"
        }
      ],
      "name": "enableTransfer",
      "outputs": [],
      "stateMutability": "nonpayable",
      "type": "function"
    },
    {
      "inputs": [
        {
          "internalType": "address",
          "name": "_from",
          "type": "address"
        },
        {
          "internalType": "address",
          "name": "_to",
          "type": "address"
        },
        {
          "internalType": "uint256",
          "name": "_tokenId",
          "type": "uint256"
        }
      ],
      "name": "safeTransferFrom",
      "outputs": [],
      "stateMutability": "nonpayable",
      "type": "function"
    },
    {
      "inputs": [
        {
          "internalType": "address",
          "name": "from",
          "type": "address"
        },
        {
          "internalType": "address",
          "name": "to",
          "type": "address"
        },
        {
          "internalType": "uint256",
          "name": "tokenId",
          "type": "uint256"
        },
        {
          "internalType": "bytes",
          "name": "_data",
          "type": "bytes"
        }
      ],
      "name": "safeTransferFrom",
      "outputs": [],
      "stateMutability": "nonpayable",
      "type": "function"
    }
  ],
  "bytecode": "0x6080604052600060065560006007553480156200001b57600080fd5b506040518060400160405280600c81526020017f536d617274436f776365727400000000000000000000000000000000000000008152506040518060400160405280600c81526020017f534d415254434f574345525400000000000000000000000000000000000000008152508160009080519060200190620000a0929190620001b2565b508060019080519060200190620000b9929190620001b2565b505050604051806060016040528060065481526020013373ffffffffffffffffffffffffffffffffffffffff1681526020016040518060400160405280600881526020017f53757261646174680000000000000000000000000000000000000000000000008152508152506009600060065481526020019081526020016000206000820151816000015560208201518160010160006101000a81548173ffffffffffffffffffffffffffffffffffffffff021916908373ffffffffffffffffffffffffffffffffffffffff1602179055506040820151816002019080519060200190620001a8929190620001b2565b50905050620002c7565b828054620001c09062000291565b90600052602060002090601f016020900481019282620001e4576000855562000230565b82601f10620001ff57805160ff191683800117855562000230565b8280016001018555821562000230579182015b828111156200022f57825182559160200191906001019062000212565b5b5090506200023f919062000243565b5090565b5b808211156200025e57600081600090555060010162000244565b5090565b7f4e487b7100000000000000000000000000000000000000000000000000000000600052602260045260246000fd5b60006002820490506001821680620002aa57607f821691505b60208210811415620002c157620002c062000262565b5b50919050565b6135bf80620002d76000396000f3fe608060405234801561001057600080fd5b50600436106101375760003560e01c806370a08231116100b8578063c87b56dd1161007c578063c87b56dd1461034c578063d16856ca1461037c578063d5dbc3d514610398578063e0be0f57146103cb578063e59989f5146103e9578063e985e9c51461040557610137565b806370a08231146102aa57806395d89b41146102da578063a22cb465146102f8578063b88d4fde14610314578063c3c88a1d1461033057610137565b80632cb3939a116100ff5780632cb3939a146101f25780632d6acafb1461021057806342842e0e146102425780636352211e1461025e5780636f7153781461028e57610137565b806301ffc9a71461013c57806306fdde031461016c578063081812fc1461018a578063095ea7b3146101ba57806323b872dd146101d6575b600080fd5b6101566004803603810190610151919061221a565b610435565b6040516101639190612262565b60405180910390f35b610174610517565b6040516101819190612316565b60405180910390f35b6101a4600480360381019061019f919061236e565b6105a9565b6040516101b191906123dc565b60405180910390f35b6101d460048036038101906101cf9190612423565b61062e565b005b6101f060048036038101906101eb9190612463565b610746565b005b6101fa6107a6565b60405161020791906124c5565b60405180910390f35b61022a6004803603810190610225919061236e565b6107ac565b604051610239939291906124e0565b60405180910390f35b61025c60048036038101906102579190612463565b61087e565b005b6102786004803603810190610273919061236e565b6108bf565b60405161028591906123dc565b60405180910390f35b6102a860048036038101906102a39190612653565b610971565b005b6102c460048036038101906102bf919061270e565b610ba5565b6040516102d191906124c5565b60405180910390f35b6102e2610c5d565b6040516102ef9190612316565b60405180910390f35b610312600480360381019061030d9190612767565b610cef565b005b61032e60048036038101906103299190612848565b610e70565b005b61034a6004803603810190610345919061236e565b610ed2565b005b6103666004803603810190610361919061236e565b611030565b6040516103739190612316565b60405180910390f35b610396600480360381019061039191906128cb565b6110d7565b005b6103b260048036038101906103ad919061236e565b611318565b6040516103c29493929190612927565b60405180910390f35b6103d36114e0565b6040516103e091906124c5565b60405180910390f35b61040360048036038101906103fe919061236e565b6114e6565b005b61041f600480360381019061041a9190612981565b611644565b60405161042c9190612262565b60405180910390f35b60007f80ac58cd000000000000000000000000000000000000000000000000000000007bffffffffffffffffffffffffffffffffffffffffffffffffffffffff1916827bffffffffffffffffffffffffffffffffffffffffffffffffffffffff1916148061050057507f5b5e139f000000000000000000000000000000000000000000000000000000007bffffffffffffffffffffffffffffffffffffffffffffffffffffffff1916827bffffffffffffffffffffffffffffffffffffffffffffffffffffffff1916145b80610510575061050f826116d8565b5b9050919050565b606060008054610526906129f0565b80601f0160208091040260200160405190810160405280929190818152602001828054610552906129f0565b801561059f5780601f106105745761010080835404028352916020019161059f565b820191906000526020600020905b81548152906001019060200180831161058257829003601f168201915b5050505050905090565b60006105b482611742565b6105f3576040517f08c379a00000000000000000000000000000000000000000000000000000000081526004016105ea90612a94565b60405180910390fd5b6004600083815260200190815260200160002060009054906101000a900473ffffffffffffffffffffffffffffffffffffffff169050919050565b6000610639826108bf565b90508073ffffffffffffffffffffffffffffffffffffffff168373ffffffffffffffffffffffffffffffffffffffff1614156106aa576040517f08c379a00000000000000000000000000000000000000000000000000000000081526004016106a190612b26565b60405180910390fd5b8073ffffffffffffffffffffffffffffffffffffffff166106c96117ae565b73ffffffffffffffffffffffffffffffffffffffff1614806106f857506106f7816106f26117ae565b611644565b5b610737576040517f08c379a000000000000000000000000000000000000000000000000000000000815260040161072e90612bb8565b60405180910390fd5b61074183836117b6565b505050565b6107576107516117ae565b8261186f565b610796576040517f08c379a000000000000000000000000000000000000000000000000000000000815260040161078d90612c4a565b60405180910390fd5b6107a183838361194d565b505050565b60075481565b60096020528060005260406000206000915090508060000154908060010160009054906101000a900473ffffffffffffffffffffffffffffffffffffffff16908060020180546107fb906129f0565b80601f0160208091040260200160405190810160405280929190818152602001828054610827906129f0565b80156108745780601f1061084957610100808354040283529160200191610874565b820191906000526020600020905b81548152906001019060200180831161085757829003601f168201915b5050505050905083565b60001515600b600083815260200190815260200160002060009054906101000a900460ff161515146108af57600080fd5b6108ba838383611ba9565b505050565b6000806002600084815260200190815260200160002060009054906101000a900473ffffffffffffffffffffffffffffffffffffffff169050600073ffffffffffffffffffffffffffffffffffffffff168173ffffffffffffffffffffffffffffffffffffffff161415610968576040517f08c379a000000000000000000000000000000000000000000000000000000000815260040161095f90612cdc565b60405180910390fd5b80915050919050565b60005b6006548111610b9e573373ffffffffffffffffffffffffffffffffffffffff166009600083815260200190815260200160002060010160009054906101000a900473ffffffffffffffffffffffffffffffffffffffff1673ffffffffffffffffffffffffffffffffffffffff161415610b8b576009600082815260200190815260200160002060010160009054906101000a900473ffffffffffffffffffffffffffffffffffffffff1673ffffffffffffffffffffffffffffffffffffffff163373ffffffffffffffffffffffffffffffffffffffff1614610a8b576040517f08c379a0000000000000000000000000000000000000000000000000000000008152600401610a8290612d48565b60405180910390fd5b60076000815480929190610a9e90612d97565b91905055506040518060800160405280600754815260200185815260200184815260200183815250600a60006007548152602001908152602001600020600082015181600001556020820151816001019080519060200190610b0192919061210b565b506040820151816002019080519060200190610b1e92919061210b565b506060820151816003019080519060200190610b3b92919061210b565b50905050610b4b85600754611bc9565b7fdd9dd323e29f8cd59a49751518bc080d5f1dfea3b949fbea9b257215a4e4fc6c600754858585604051610b829493929190612927565b60405180910390a15b8080610b9690612d97565b915050610974565b5050505050565b60008073ffffffffffffffffffffffffffffffffffffffff168273ffffffffffffffffffffffffffffffffffffffff161415610c16576040517f08c379a0000000000000000000000000000000000000000000000000000000008152600401610c0d90612e52565b60405180910390fd5b600360008373ffffffffffffffffffffffffffffffffffffffff1673ffffffffffffffffffffffffffffffffffffffff168152602001908152602001600020549050919050565b606060018054610c6c906129f0565b80601f0160208091040260200160405190810160405280929190818152602001828054610c98906129f0565b8015610ce55780601f10610cba57610100808354040283529160200191610ce5565b820191906000526020600020905b815481529060010190602001808311610cc857829003601f168201915b5050505050905090565b610cf76117ae565b73ffffffffffffffffffffffffffffffffffffffff168273ffffffffffffffffffffffffffffffffffffffff161415610d65576040517f08c379a0000000000000000000000000000000000000000000000000000000008152600401610d5c90612ebe565b60405180910390fd5b8060056000610d726117ae565b73ffffffffffffffffffffffffffffffffffffffff1673ffffffffffffffffffffffffffffffffffffffff16815260200190815260200160002060008473ffffffffffffffffffffffffffffffffffffffff1673ffffffffffffffffffffffffffffffffffffffff16815260200190815260200160002060006101000a81548160ff0219169083151502179055508173ffffffffffffffffffffffffffffffffffffffff16610e1f6117ae565b73ffffffffffffffffffffffffffffffffffffffff167f17307eab39ab6107e8899845ad3d59bd9653f200f220920489ca2b5937696c3183604051610e649190612262565b60405180910390a35050565b610e81610e7b6117ae565b8361186f565b610ec0576040517f08c379a0000000000000000000000000000000000000000000000000000000008152600401610eb790612c4a565b60405180910390fd5b610ecc84848484611d97565b50505050565b60005b600654811161102c573373ffffffffffffffffffffffffffffffffffffffff166009600083815260200190815260200160002060010160009054906101000a900473ffffffffffffffffffffffffffffffffffffffff1673ffffffffffffffffffffffffffffffffffffffff161415611019576009600082815260200190815260200160002060010160009054906101000a900473ffffffffffffffffffffffffffffffffffffffff1673ffffffffffffffffffffffffffffffffffffffff163373ffffffffffffffffffffffffffffffffffffffff1614610fec576040517f08c379a0000000000000000000000000000000000000000000000000000000008152600401610fe390612d48565b60405180910390fd5b6001600b600084815260200190815260200160002060006101000a81548160ff0219169083151502179055505b808061102490612d97565b915050610ed5565b5050565b606061103b82611742565b61107a576040517f08c379a000000000000000000000000000000000000000000000000000000000815260040161107190612f50565b60405180910390fd5b6000611084611df3565b905060008151116110a457604051806020016040528060008152506110cf565b806110ae84611e0a565b6040516020016110bf929190612fac565b6040516020818303038152906040525b915050919050565b60005b6006548111611313573373ffffffffffffffffffffffffffffffffffffffff166009600083815260200190815260200160002060010160009054906101000a900473ffffffffffffffffffffffffffffffffffffffff1673ffffffffffffffffffffffffffffffffffffffff161415611300576009600082815260200190815260200160002060010160009054906101000a900473ffffffffffffffffffffffffffffffffffffffff1673ffffffffffffffffffffffffffffffffffffffff163373ffffffffffffffffffffffffffffffffffffffff16146111f1576040517f08c379a00000000000000000000000000000000000000000000000000000000081526004016111e89061301c565b60405180910390fd5b6006600081548092919061120490612d97565b9190505550604051806060016040528060065481526020018473ffffffffffffffffffffffffffffffffffffffff168152602001838152506009600060065481526020019081526020016000206000820151816000015560208201518160010160006101000a81548173ffffffffffffffffffffffffffffffffffffffff021916908373ffffffffffffffffffffffffffffffffffffffff16021790555060408201518160020190805190602001906112be92919061210b565b509050507fef378b7ae33a273f09c904a9a8601d264935a173fd8aa7a9b00b89839df7fa6e60065484846040516112f7939291906124e0565b60405180910390a15b808061130b90612d97565b9150506110da565b505050565b600a602052806000526040600020600091509050806000015490806001018054611341906129f0565b80601f016020809104026020016040519081016040528092919081815260200182805461136d906129f0565b80156113ba5780601f1061138f576101008083540402835291602001916113ba565b820191906000526020600020905b81548152906001019060200180831161139d57829003601f168201915b5050505050908060020180546113cf906129f0565b80601f01602080910402602001604051908101604052809291908181526020018280546113fb906129f0565b80156114485780601f1061141d57610100808354040283529160200191611448565b820191906000526020600020905b81548152906001019060200180831161142b57829003601f168201915b50505050509080600301805461145d906129f0565b80601f0160208091040260200160405190810160405280929190818152602001828054611489906129f0565b80156114d65780601f106114ab576101008083540402835291602001916114d6565b820191906000526020600020905b8154815290600101906020018083116114b957829003601f168201915b5050505050905084565b60065481565b60005b6006548111611640573373ffffffffffffffffffffffffffffffffffffffff166009600083815260200190815260200160002060010160009054906101000a900473ffffffffffffffffffffffffffffffffffffffff1673ffffffffffffffffffffffffffffffffffffffff16141561162d576009600082815260200190815260200160002060010160009054906101000a900473ffffffffffffffffffffffffffffffffffffffff1673ffffffffffffffffffffffffffffffffffffffff163373ffffffffffffffffffffffffffffffffffffffff1614611600576040517f08c379a00000000000000000000000000000000000000000000000000000000081526004016115f790612d48565b60405180910390fd5b6000600b600084815260200190815260200160002060006101000a81548160ff0219169083151502179055505b808061163890612d97565b9150506114e9565b5050565b6000600560008473ffffffffffffffffffffffffffffffffffffffff1673ffffffffffffffffffffffffffffffffffffffff16815260200190815260200160002060008373ffffffffffffffffffffffffffffffffffffffff1673ffffffffffffffffffffffffffffffffffffffff16815260200190815260200160002060009054906101000a900460ff16905092915050565b60007f01ffc9a7000000000000000000000000000000000000000000000000000000007bffffffffffffffffffffffffffffffffffffffffffffffffffffffff1916827bffffffffffffffffffffffffffffffffffffffffffffffffffffffff1916149050919050565b60008073ffffffffffffffffffffffffffffffffffffffff166002600084815260200190815260200160002060009054906101000a900473ffffffffffffffffffffffffffffffffffffffff1673ffffffffffffffffffffffffffffffffffffffff1614159050919050565b600033905090565b816004600083815260200190815260200160002060006101000a81548173ffffffffffffffffffffffffffffffffffffffff021916908373ffffffffffffffffffffffffffffffffffffffff160217905550808273ffffffffffffffffffffffffffffffffffffffff16611829836108bf565b73ffffffffffffffffffffffffffffffffffffffff167f8c5be1e5ebec7d5bd14f71427d1e84f3dd0314c0f7b2291e5b200ac8c7c3b92560405160405180910390a45050565b600061187a82611742565b6118b9576040517f08c379a00000000000000000000000000000000000000000000000000000000081526004016118b0906130ae565b60405180910390fd5b60006118c4836108bf565b90508073ffffffffffffffffffffffffffffffffffffffff168473ffffffffffffffffffffffffffffffffffffffff16148061193357508373ffffffffffffffffffffffffffffffffffffffff1661191b846105a9565b73ffffffffffffffffffffffffffffffffffffffff16145b8061194457506119438185611644565b5b91505092915050565b8273ffffffffffffffffffffffffffffffffffffffff1661196d826108bf565b73ffffffffffffffffffffffffffffffffffffffff16146119c3576040517f08c379a00000000000000000000000000000000000000000000000000000000081526004016119ba90613140565b60405180910390fd5b600073ffffffffffffffffffffffffffffffffffffffff168273ffffffffffffffffffffffffffffffffffffffff161415611a33576040517f08c379a0000000000000000000000000000000000000000000000000000000008152600401611a2a906131d2565b60405180910390fd5b611a3e838383611f6b565b611a496000826117b6565b6001600360008573ffffffffffffffffffffffffffffffffffffffff1673ffffffffffffffffffffffffffffffffffffffff1681526020019081526020016000206000828254611a9991906131f2565b925050819055506001600360008473ffffffffffffffffffffffffffffffffffffffff1673ffffffffffffffffffffffffffffffffffffffff1681526020019081526020016000206000828254611af09190613226565b92505081905550816002600083815260200190815260200160002060006101000a81548173ffffffffffffffffffffffffffffffffffffffff021916908373ffffffffffffffffffffffffffffffffffffffff160217905550808273ffffffffffffffffffffffffffffffffffffffff168473ffffffffffffffffffffffffffffffffffffffff167fddf252ad1be2c89b69c2b068fc378daa952ba7f163c4a11628f55a4df523b3ef60405160405180910390a4505050565b611bc483838360405180602001604052806000815250610e70565b505050565b600073ffffffffffffffffffffffffffffffffffffffff168273ffffffffffffffffffffffffffffffffffffffff161415611c39576040517f08c379a0000000000000000000000000000000000000000000000000000000008152600401611c30906132c8565b60405180910390fd5b611c4281611742565b15611c82576040517f08c379a0000000000000000000000000000000000000000000000000000000008152600401611c7990613334565b60405180910390fd5b611c8e60008383611f6b565b6001600360008473ffffffffffffffffffffffffffffffffffffffff1673ffffffffffffffffffffffffffffffffffffffff1681526020019081526020016000206000828254611cde9190613226565b92505081905550816002600083815260200190815260200160002060006101000a81548173ffffffffffffffffffffffffffffffffffffffff021916908373ffffffffffffffffffffffffffffffffffffffff160217905550808273ffffffffffffffffffffffffffffffffffffffff16600073ffffffffffffffffffffffffffffffffffffffff167fddf252ad1be2c89b69c2b068fc378daa952ba7f163c4a11628f55a4df523b3ef60405160405180910390a45050565b611da284848461194d565b611dae84848484611f70565b611ded576040517f08c379a0000000000000000000000000000000000000000000000000000000008152600401611de4906133c6565b60405180910390fd5b50505050565b606060405180602001604052806000815250905090565b60606000821415611e52576040518060400160405280600181526020017f30000000000000000000000000000000000000000000000000000000000000008152509050611f66565b600082905060005b60008214611e84578080611e6d90612d97565b915050600a82611e7d9190613415565b9150611e5a565b60008167ffffffffffffffff811115611ea057611e9f612528565b5b6040519080825280601f01601f191660200182016040528015611ed25781602001600182028036833780820191505090505b5090505b60008514611f5f57600182611eeb91906131f2565b9150600a85611efa9190613446565b6030611f069190613226565b60f81b818381518110611f1c57611f1b613477565b5b60200101907effffffffffffffffffffffffffffffffffffffffffffffffffffffffffffff1916908160001a905350600a85611f589190613415565b9450611ed6565b8093505050505b919050565b505050565b6000611f918473ffffffffffffffffffffffffffffffffffffffff166120f8565b156120eb578373ffffffffffffffffffffffffffffffffffffffff1663150b7a02611fba6117ae565b8786866040518563ffffffff1660e01b8152600401611fdc94939291906134fb565b6020604051808303816000875af192505050801561201857506040513d601f19601f82011682018060405250810190612015919061355c565b60015b61209b573d8060008114612048576040519150601f19603f3d011682016040523d82523d6000602084013e61204d565b606091505b50600081511415612093576040517f08c379a000000000000000000000000000000000000000000000000000000000815260040161208a906133c6565b60405180910390fd5b805181602001fd5b63150b7a0260e01b7bffffffffffffffffffffffffffffffffffffffffffffffffffffffff1916817bffffffffffffffffffffffffffffffffffffffffffffffffffffffff1916149150506120f0565b600190505b949350505050565b600080823b905060008111915050919050565b828054612117906129f0565b90600052602060002090601f0160209004810192826121395760008555612180565b82601f1061215257805160ff1916838001178555612180565b82800160010185558215612180579182015b8281111561217f578251825591602001919060010190612164565b5b50905061218d9190612191565b5090565b5b808211156121aa576000816000905550600101612192565b5090565b6000604051905090565b600080fd5b600080fd5b60007fffffffff0000000000000000000000000000000000000000000000000000000082169050919050565b6121f7816121c2565b811461220257600080fd5b50565b600081359050612214816121ee565b92915050565b6000602082840312156122305761222f6121b8565b5b600061223e84828501612205565b91505092915050565b60008115159050919050565b61225c81612247565b82525050565b60006020820190506122776000830184612253565b92915050565b600081519050919050565b600082825260208201905092915050565b60005b838110156122b757808201518184015260208101905061229c565b838111156122c6576000848401525b50505050565b6000601f19601f8301169050919050565b60006122e88261227d565b6122f28185612288565b9350612302818560208601612299565b61230b816122cc565b840191505092915050565b6000602082019050818103600083015261233081846122dd565b905092915050565b6000819050919050565b61234b81612338565b811461235657600080fd5b50565b60008135905061236881612342565b92915050565b600060208284031215612384576123836121b8565b5b600061239284828501612359565b91505092915050565b600073ffffffffffffffffffffffffffffffffffffffff82169050919050565b60006123c68261239b565b9050919050565b6123d6816123bb565b82525050565b60006020820190506123f160008301846123cd565b92915050565b612400816123bb565b811461240b57600080fd5b50565b60008135905061241d816123f7565b92915050565b6000806040838503121561243a576124396121b8565b5b60006124488582860161240e565b925050602061245985828601612359565b9150509250929050565b60008060006060848603121561247c5761247b6121b8565b5b600061248a8682870161240e565b935050602061249b8682870161240e565b92505060406124ac86828701612359565b9150509250925092565b6124bf81612338565b82525050565b60006020820190506124da60008301846124b6565b92915050565b60006060820190506124f560008301866124b6565b61250260208301856123cd565b818103604083015261251481846122dd565b9050949350505050565b600080fd5b600080fd5b7f4e487b7100000000000000000000000000000000000000000000000000000000600052604160045260246000fd5b612560826122cc565b810181811067ffffffffffffffff8211171561257f5761257e612528565b5b80604052505050565b60006125926121ae565b905061259e8282612557565b919050565b600067ffffffffffffffff8211156125be576125bd612528565b5b6125c7826122cc565b9050602081019050919050565b82818337600083830152505050565b60006125f66125f1846125a3565b612588565b90508281526020810184848401111561261257612611612523565b5b61261d8482856125d4565b509392505050565b600082601f83011261263a5761263961251e565b5b813561264a8482602086016125e3565b91505092915050565b6000806000806080858703121561266d5761266c6121b8565b5b600061267b8782880161240e565b945050602085013567ffffffffffffffff81111561269c5761269b6121bd565b5b6126a887828801612625565b935050604085013567ffffffffffffffff8111156126c9576126c86121bd565b5b6126d587828801612625565b925050606085013567ffffffffffffffff8111156126f6576126f56121bd565b5b61270287828801612625565b91505092959194509250565b600060208284031215612724576127236121b8565b5b60006127328482850161240e565b91505092915050565b61274481612247565b811461274f57600080fd5b50565b6000813590506127618161273b565b92915050565b6000806040838503121561277e5761277d6121b8565b5b600061278c8582860161240e565b925050602061279d85828601612752565b9150509250929050565b600067ffffffffffffffff8211156127c2576127c1612528565b5b6127cb826122cc565b9050602081019050919050565b60006127eb6127e6846127a7565b612588565b90508281526020810184848401111561280757612806612523565b5b6128128482856125d4565b509392505050565b600082601f83011261282f5761282e61251e565b5b813561283f8482602086016127d8565b91505092915050565b60008060008060808587031215612862576128616121b8565b5b60006128708782880161240e565b94505060206128818782880161240e565b935050604061289287828801612359565b925050606085013567ffffffffffffffff8111156128b3576128b26121bd565b5b6128bf8782880161281a565b91505092959194509250565b600080604083850312156128e2576128e16121b8565b5b60006128f08582860161240e565b925050602083013567ffffffffffffffff811115612911576129106121bd565b5b61291d85828601612625565b9150509250929050565b600060808201905061293c60008301876124b6565b818103602083015261294e81866122dd565b9050818103604083015261296281856122dd565b9050818103606083015261297681846122dd565b905095945050505050565b60008060408385031215612998576129976121b8565b5b60006129a68582860161240e565b92505060206129b78582860161240e565b9150509250929050565b7f4e487b7100000000000000000000000000000000000000000000000000000000600052602260045260246000fd5b60006002820490506001821680612a0857607f821691505b60208210811415612a1c57612a1b6129c1565b5b50919050565b7f4552433732313a20617070726f76656420717565727920666f72206e6f6e657860008201527f697374656e7420746f6b656e0000000000000000000000000000000000000000602082015250565b6000612a7e602c83612288565b9150612a8982612a22565b604082019050919050565b60006020820190508181036000830152612aad81612a71565b9050919050565b7f4552433732313a20617070726f76616c20746f2063757272656e74206f776e6560008201527f7200000000000000000000000000000000000000000000000000000000000000602082015250565b6000612b10602183612288565b9150612b1b82612ab4565b604082019050919050565b60006020820190508181036000830152612b3f81612b03565b9050919050565b7f4552433732313a20617070726f76652063616c6c6572206973206e6f74206f7760008201527f6e6572206e6f7220617070726f76656420666f7220616c6c0000000000000000602082015250565b6000612ba2603883612288565b9150612bad82612b46565b604082019050919050565b60006020820190508181036000830152612bd181612b95565b9050919050565b7f4552433732313a207472616e736665722063616c6c6572206973206e6f74206f60008201527f776e6572206e6f7220617070726f766564000000000000000000000000000000602082015250565b6000612c34603183612288565b9150612c3f82612bd8565b604082019050919050565b60006020820190508181036000830152612c6381612c27565b9050919050565b7f4552433732313a206f776e657220717565727920666f72206e6f6e657869737460008201527f656e7420746f6b656e0000000000000000000000000000000000000000000000602082015250565b6000612cc6602983612288565b9150612cd182612c6a565b604082019050919050565b60006020820190508181036000830152612cf581612cb9565b9050919050565b7f596f7520617265206e6f74204f776e6572210000000000000000000000000000600082015250565b6000612d32601283612288565b9150612d3d82612cfc565b602082019050919050565b60006020820190508181036000830152612d6181612d25565b9050919050565b7f4e487b7100000000000000000000000000000000000000000000000000000000600052601160045260246000fd5b6000612da282612338565b91507fffffffffffffffffffffffffffffffffffffffffffffffffffffffffffffffff821415612dd557612dd4612d68565b5b600182019050919050565b7f4552433732313a2062616c616e636520717565727920666f7220746865207a6560008201527f726f206164647265737300000000000000000000000000000000000000000000602082015250565b6000612e3c602a83612288565b9150612e4782612de0565b604082019050919050565b60006020820190508181036000830152612e6b81612e2f565b9050919050565b7f4552433732313a20617070726f766520746f2063616c6c657200000000000000600082015250565b6000612ea8601983612288565b9150612eb382612e72565b602082019050919050565b60006020820190508181036000830152612ed781612e9b565b9050919050565b7f4552433732314d657461646174613a2055524920717565727920666f72206e6f60008201527f6e6578697374656e7420746f6b656e0000000000000000000000000000000000602082015250565b6000612f3a602f83612288565b9150612f4582612ede565b604082019050919050565b60006020820190508181036000830152612f6981612f2d565b9050919050565b600081905092915050565b6000612f868261227d565b612f908185612f70565b9350612fa0818560208601612299565b80840191505092915050565b6000612fb88285612f7b565b9150612fc48284612f7b565b91508190509392505050565b7f596f75206e6f74206372656174652041646d696e000000000000000000000000600082015250565b6000613006601483612288565b915061301182612fd0565b602082019050919050565b6000602082019050818103600083015261303581612ff9565b9050919050565b7f4552433732313a206f70657261746f7220717565727920666f72206e6f6e657860008201527f697374656e7420746f6b656e0000000000000000000000000000000000000000602082015250565b6000613098602c83612288565b91506130a38261303c565b604082019050919050565b600060208201905081810360008301526130c78161308b565b9050919050565b7f4552433732313a207472616e73666572206f6620746f6b656e2074686174206960008201527f73206e6f74206f776e0000000000000000000000000000000000000000000000602082015250565b600061312a602983612288565b9150613135826130ce565b604082019050919050565b600060208201905081810360008301526131598161311d565b9050919050565b7f4552433732313a207472616e7366657220746f20746865207a65726f2061646460008201527f7265737300000000000000000000000000000000000000000000000000000000602082015250565b60006131bc602483612288565b91506131c782613160565b604082019050919050565b600060208201905081810360008301526131eb816131af565b9050919050565b60006131fd82612338565b915061320883612338565b92508282101561321b5761321a612d68565b5b828203905092915050565b600061323182612338565b915061323c83612338565b9250827fffffffffffffffffffffffffffffffffffffffffffffffffffffffffffffffff0382111561327157613270612d68565b5b828201905092915050565b7f4552433732313a206d696e7420746f20746865207a65726f2061646472657373600082015250565b60006132b2602083612288565b91506132bd8261327c565b602082019050919050565b600060208201905081810360008301526132e1816132a5565b9050919050565b7f4552433732313a20746f6b656e20616c7265616479206d696e74656400000000600082015250565b600061331e601c83612288565b9150613329826132e8565b602082019050919050565b6000602082019050818103600083015261334d81613311565b9050919050565b7f4552433732313a207472616e7366657220746f206e6f6e20455243373231526560008201527f63656976657220696d706c656d656e7465720000000000000000000000000000602082015250565b60006133b0603283612288565b91506133bb82613354565b604082019050919050565b600060208201905081810360008301526133df816133a3565b9050919050565b7f4e487b7100000000000000000000000000000000000000000000000000000000600052601260045260246000fd5b600061342082612338565b915061342b83612338565b92508261343b5761343a6133e6565b5b828204905092915050565b600061345182612338565b915061345c83612338565b92508261346c5761346b6133e6565b5b828206905092915050565b7f4e487b7100000000000000000000000000000000000000000000000000000000600052603260045260246000fd5b600081519050919050565b600082825260208201905092915050565b60006134cd826134a6565b6134d781856134b1565b93506134e7818560208601612299565b6134f0816122cc565b840191505092915050565b600060808201905061351060008301876123cd565b61351d60208301866123cd565b61352a60408301856124b6565b818103606083015261353c81846134c2565b905095945050505050565b600081519050613556816121ee565b92915050565b600060208284031215613572576135716121b8565b5b600061358084828501613547565b9150509291505056fea26469706673582212207a39c7756d364210815f269bc9d2002e1819844c18f69a20604ef926ccc25f5664736f6c634300080a0033",
  "immutableReferences": {},
  "source": "// SPDX-License-Identifier: MIT\npragma solidity >=0.4.22 <0.9.0;\n\nimport \"../node_modules/@openzeppelin/contracts/token/ERC721/ERC721.sol\";\n\ncontract CowCoin is ERC721 {\n    \n    // Permission address at create Certificate and send new cert to Customers.\n    uint public goverCount = 0;\n    uint public cowCertCount = 0;\n    \n    address [] government;\n    \n    struct AdAdmin{\n        uint256 userId;\n        address government;\n        string username;\n    }\n    \n    struct AddCertCoin {\n        uint256 id;\n        string tokendId;\n        string cowCertlist;\n        string imgPath;\n    }\n    \n    mapping(uint256 => AdAdmin) public taskcows;\n    mapping(uint256 => AddCertCoin) public blacklistedCowCert;\n    mapping(uint256 => bool) internal blockCowcert;\n   \n    \n    constructor()   \n    ERC721(\"SmartCowcert\",\"SMARTCOWCERT\")\n    {\n        taskcows[goverCount] = AdAdmin(goverCount,msg.sender,\"Suradath\");\n    }\n\n    modifier onlyGovernment() {\n          for(uint i = 0; i <= goverCount; i++)\n        {\n            if(taskcows[i].government == msg.sender)\n            {\n                require(msg.sender == taskcows[i].government ,\"You are not Owner!\");\n                _;\n            }\n        }\n        // require(msg.sender == taskcows[goverCount].government ,\"You are not Owner!\");\n        // _;\n    }\n\n    event TaskCreatedadmin(\n        uint256 userId,\n        address government,\n        string username\n    );\n    event TaskCreateCowCert(\n        uint256 id,\n        string tokendid,\n        string cowCertlist,\n        string imgPath\n    );\n    \n    // Add admin address by governments add to admin\n    function addAdmin(address _government,string memory _username) public {\n        // require(msg.sender == taskcows[goverCount].government,\"You not create Admin\");\n        for(uint256 i = 0; i <= goverCount; i++)\n        {\n            if(taskcows[i].government == msg.sender)\n            {\n                require(msg.sender == taskcows[i].government,\"You not create Admin\");\n                goverCount++;\n                taskcows[goverCount] = AdAdmin(goverCount,_government,_username);\n                emit TaskCreatedadmin(goverCount,_government,_username);\n            }        \n        }\n        \n    }\n    \n    function tokenizedCowCert(address _realEstateOwner, string memory _tokenId,string memory _cowCertlist,string memory _imgPath)\n        public\n        onlyGovernment\n    {\n        cowCertCount++;\n        blacklistedCowCert[cowCertCount] = AddCertCoin(cowCertCount,_tokenId,_cowCertlist,_imgPath);\n        // super._mint(_realEstateOwner, _tokenId);\n        super._mint(_realEstateOwner,cowCertCount);\n        emit TaskCreateCowCert(cowCertCount,_tokenId,_cowCertlist,_imgPath);\n    }\n\n    // function getTokenizedCowCer(uint256 _id) public view returns(uint256,uint256,string memory,string memory){\n    //     return blacklistedCowCert(_id);\n    // }\n\n    // Stop or block Cowcoin Nft from buying or selling.\n    function disableTransfer(uint256 _tokenId) public onlyGovernment {\n        blockCowcert[_tokenId] = true;\n    }\n    \n    function enableTransfer(uint256 _tokenId) public onlyGovernment {\n        blockCowcert[_tokenId] = false;\n    }\n\n    // Setup sell  Customer Payment to sell  Customer type P2P \n    function safeTransferFrom(\n        address _from,\n        address _to,\n        uint256 _tokenId\n    ) public virtual override {\n        require(blockCowcert[_tokenId] == false);\n        super.safeTransferFrom(_from, _to, _tokenId);\n    }\n\n}",
  "sourcePath": "/Users/noobtoninja/Job/Programe/html-to-react/contracts/CowCoin.sol",
  "compiler": {
    "name": "solc",
    "version": "0.8.10+commit.fc410830.Emscripten.clang"
  },
  "schemaVersion": "3.4.3",
  "updatedAt": "2021-11-26T17:17:50.833Z",
  "networkType": "ethereum",
  "devdoc": {
    "kind": "dev",
    "methods": {
      "approve(address,uint256)": {
        "details": "See {IERC721-approve}."
      },
      "balanceOf(address)": {
        "details": "See {IERC721-balanceOf}."
      },
      "getApproved(uint256)": {
        "details": "See {IERC721-getApproved}."
      },
      "isApprovedForAll(address,address)": {
        "details": "See {IERC721-isApprovedForAll}."
      },
      "name()": {
        "details": "See {IERC721Metadata-name}."
      },
      "ownerOf(uint256)": {
        "details": "See {IERC721-ownerOf}."
      },
      "safeTransferFrom(address,address,uint256,bytes)": {
        "details": "See {IERC721-safeTransferFrom}."
      },
      "setApprovalForAll(address,bool)": {
        "details": "See {IERC721-setApprovalForAll}."
      },
      "supportsInterface(bytes4)": {
        "details": "See {IERC165-supportsInterface}."
      },
      "symbol()": {
        "details": "See {IERC721Metadata-symbol}."
      },
      "tokenURI(uint256)": {
        "details": "See {IERC721Metadata-tokenURI}."
      },
      "transferFrom(address,address,uint256)": {
        "details": "See {IERC721-transferFrom}."
      }
    },
    "version": 1
  },
  "userdoc": {
    "kind": "user",
    "methods": {},
    "version": 1
  }
}