{
  "contractName": "CowCertificate",
  "abi": [
    {
      "inputs": [],
      "payable": false,
      "stateMutability": "nonpayable",
      "type": "constructor"
    },
    {
      "anonymous": false,
      "inputs": [
        {
          "indexed": false,
          "internalType": "uint256",
          "name": "id",
          "type": "uint256"
        },
        {
          "indexed": false,
          "internalType": "string",
          "name": "dataCow",
          "type": "string"
        }
      ],
      "name": "TaskCreatedCowCert",
      "type": "event"
    },
    {
      "anonymous": false,
      "inputs": [
        {
          "indexed": true,
          "internalType": "address",
          "name": "_from",
          "type": "address"
        },
        {
          "indexed": true,
          "internalType": "address",
          "name": "_to",
          "type": "address"
        },
        {
          "indexed": false,
          "internalType": "uint256",
          "name": "_value",
          "type": "uint256"
        }
      ],
      "name": "Transfer",
      "type": "event"
    },
    {
      "constant": true,
      "inputs": [],
      "name": "taskCount",
      "outputs": [
        {
          "internalType": "uint256",
          "name": "",
          "type": "uint256"
        }
      ],
      "payable": false,
      "stateMutability": "view",
      "type": "function"
    },
    {
      "constant": true,
      "inputs": [
        {
          "internalType": "uint256",
          "name": "",
          "type": "uint256"
        }
      ],
      "name": "taskcows",
      "outputs": [
        {
          "internalType": "uint256",
          "name": "id",
          "type": "uint256"
        },
        {
          "internalType": "string",
          "name": "dataCow",
          "type": "string"
        }
      ],
      "payable": false,
      "stateMutability": "view",
      "type": "function"
    },
    {
      "constant": false,
      "inputs": [
        {
          "internalType": "string",
          "name": "_data",
          "type": "string"
        }
      ],
      "name": "CreateCowCert",
      "outputs": [],
      "payable": false,
      "stateMutability": "nonpayable",
      "type": "function"
    },
    {
      "constant": true,
      "inputs": [
        {
          "internalType": "address",
          "name": "addr",
          "type": "address"
        }
      ],
      "name": "getBalance",
      "outputs": [
        {
          "internalType": "uint256",
          "name": "",
          "type": "uint256"
        }
      ],
      "payable": false,
      "stateMutability": "view",
      "type": "function"
    }
  ],
  "bytecode": "0x60806040526000805534801561001457600080fd5b50612710600160003273ffffffffffffffffffffffffffffffffffffffff1673ffffffffffffffffffffffffffffffffffffffff168152602001908152602001600020819055506105248061006a6000396000f3fe608060405234801561001057600080fd5b506004361061004c5760003560e01c80632d6acafb14610051578063b21e64b7146100ff578063b6cb58a5146101ba578063f8b2cb4f146101d8575b600080fd5b61007d6004803603602081101561006757600080fd5b8101908080359060200190929190505050610230565b6040518083815260200180602001828103825283818151815260200191508051906020019080838360005b838110156100c35780820151818401526020810190506100a8565b50505050905090810190601f1680156100f05780820380516001836020036101000a031916815260200191505b50935050505060405180910390f35b6101b86004803603602081101561011557600080fd5b810190808035906020019064010000000081111561013257600080fd5b82018360208201111561014457600080fd5b8035906020019184600183028401116401000000008311171561016657600080fd5b91908080601f016020809104026020016040519081016040528093929190818152602001838380828437600081840152601f19601f8201169050808301925050505050505091929192905050506102ec565b005b6101c26103fb565b6040518082815260200191505060405180910390f35b61021a600480360360208110156101ee57600080fd5b81019080803573ffffffffffffffffffffffffffffffffffffffff169060200190929190505050610401565b6040518082815260200191505060405180910390f35b6002602052806000526040600020600091509050806000015490806001018054600181600116156101000203166002900480601f0160208091040260200160405190810160405280929190818152602001828054600181600116156101000203166002900480156102e25780601f106102b7576101008083540402835291602001916102e2565b820191906000526020600020905b8154815290600101906020018083116102c557829003601f168201915b5050505050905082565b60008081548092919060010191905055506040518060400160405280600054815260200182815250600260008054815260200190815260200160002060008201518160000155602082015181600101908051906020019061034e92919061044a565b509050507f4b38728b9f299b899b2a8c9c0d2cb33e01daecd1aa3e820f7a86ba9070d9e978600054826040518083815260200180602001828103825283818151815260200191508051906020019080838360005b838110156103bd5780820151818401526020810190506103a2565b50505050905090810190601f1680156103ea5780820380516001836020036101000a031916815260200191505b50935050505060405180910390a150565b60005481565b6000600160008373ffffffffffffffffffffffffffffffffffffffff1673ffffffffffffffffffffffffffffffffffffffff168152602001908152602001600020549050919050565b828054600181600116156101000203166002900490600052602060002090601f016020900481019282601f1061048b57805160ff19168380011785556104b9565b828001600101855582156104b9579182015b828111156104b857825182559160200191906001019061049d565b5b5090506104c691906104ca565b5090565b6104ec91905b808211156104e85760008160009055506001016104d0565b5090565b9056fea265627a7a723158209cbc42d27bc0323665fcaacba2ea1a3af3ae4244ff7b617e348a1f45f21d650164736f6c63430005100032",
  "source": "// SPDX-License-Identifier: MIT\npragma solidity >=0.4.22 <0.9.0;\n\ncontract CowCertificate {\n    uint256 public taskCount = 0;\n    mapping (address => uint) balances;\n    // string[] dataCowCert;\n    event Transfer(address indexed _from, address indexed _to, uint256 _value);\n\n    struct TaskCow {\n        uint256 id;\n        string dataCow;\n    }\n\n    mapping(uint256 => TaskCow) public taskcows;\n\n    event TaskCreatedCowCert(uint256 id, string dataCow);\n\n    constructor() public {\n        balances[tx.origin] = 10000;\n    }\n\n    function CreateCowCert(string memory _data) public {\n        taskCount++;\n        taskcows[taskCount] = TaskCow(taskCount, _data);\n        emit TaskCreatedCowCert(taskCount, _data);\n    }\n\n    function getBalance(address addr) public view returns(uint) {\n        return balances[addr];\n    }\n}\n",
  "sourcePath": "/Users/noobtoninja/Job/Programe/html-to-react/contracts/CowCertificate.sol",
  "compiler": {
    "name": "solc",
    "version": "0.5.16+commit.9c3226ce.Emscripten.clang"
  },
  "schemaVersion": "3.4.3",
  "updatedAt": "2021-10-22T16:06:09.132Z",
  "networkType": "ethereum",
  "devdoc": {
    "methods": {}
  },
  "userdoc": {
    "methods": {}
  }
}