{
  "contractName": "SmartCowCert",
  "abi": [
    {
      "inputs": [],
      "stateMutability": "nonpayable",
      "type": "constructor"
    },
    {
      "anonymous": false,
      "inputs": [
        {
          "indexed": false,
          "internalType": "uint256",
          "name": "id",
          "type": "uint256"
        },
        {
          "indexed": false,
          "internalType": "bool",
          "name": "completed",
          "type": "bool"
        }
      ],
      "name": "TaskCompleted",
      "type": "event"
    },
    {
      "anonymous": false,
      "inputs": [
        {
          "indexed": false,
          "internalType": "uint256",
          "name": "id",
          "type": "uint256"
        },
        {
          "indexed": false,
          "internalType": "string",
          "name": "content",
          "type": "string"
        },
        {
          "indexed": false,
          "internalType": "bool",
          "name": "completed",
          "type": "bool"
        }
      ],
      "name": "TaskCreated",
      "type": "event"
    },
    {
      "inputs": [
        {
          "internalType": "uint256",
          "name": "",
          "type": "uint256"
        }
      ],
      "name": "cowcertList",
      "outputs": [
        {
          "internalType": "string",
          "name": "",
          "type": "string"
        }
      ],
      "stateMutability": "view",
      "type": "function"
    },
    {
      "inputs": [],
      "name": "taskCount",
      "outputs": [
        {
          "internalType": "uint256",
          "name": "",
          "type": "uint256"
        }
      ],
      "stateMutability": "view",
      "type": "function"
    },
    {
      "inputs": [
        {
          "internalType": "uint256",
          "name": "",
          "type": "uint256"
        }
      ],
      "name": "tasks",
      "outputs": [
        {
          "internalType": "uint256",
          "name": "id",
          "type": "uint256"
        },
        {
          "internalType": "string",
          "name": "content",
          "type": "string"
        },
        {
          "internalType": "bool",
          "name": "completed",
          "type": "bool"
        }
      ],
      "stateMutability": "view",
      "type": "function"
    },
    {
      "inputs": [
        {
          "internalType": "string",
          "name": "_content",
          "type": "string"
        }
      ],
      "name": "createTask",
      "outputs": [],
      "stateMutability": "nonpayable",
      "type": "function"
    },
    {
      "inputs": [
        {
          "internalType": "uint256",
          "name": "_id",
          "type": "uint256"
        }
      ],
      "name": "toggleCompleted",
      "outputs": [],
      "stateMutability": "nonpayable",
      "type": "function"
    }
  ],
  "bytecode": "0x60806040526000805534801561001457600080fd5b506109f6806100246000396000f3fe608060405234801561001057600080fd5b50600436106100575760003560e01c8063111002aa1461005c578063455f5024146100785780638d97767214610094578063b6cb58a5146100c6578063d2501564146100e4575b600080fd5b610076600480360381019061007191906106e5565b610114565b005b610092600480360381019061008d9190610764565b6101ea565b005b6100ae60048036038101906100a99190610764565b610377565b6040516100bd93929190610843565b60405180910390f35b6100ce610436565b6040516100db9190610881565b60405180910390f35b6100fe60048036038101906100f99190610764565b61043c565b60405161010b919061089c565b60405180910390f35b600080815480929190610126906108ed565b9190505550604051806060016040528060005481526020018281526020016000151581525060026000805481526020019081526020016000206000820151816000015560208201518160010190805190602001906101859291906104e8565b5060408201518160020160006101000a81548160ff0219169083151502179055509050507f05d0fb833127fc08168556d0e7ca9554fc3f6bc843b3b7d2bf1c35aea6bab6606000548260006040516101df93929190610843565b60405180910390a150565b6000600260008381526020019081526020016000206040518060600160405290816000820154815260200160018201805461022490610965565b80601f016020809104026020016040519081016040528092919081815260200182805461025090610965565b801561029d5780601f106102725761010080835404028352916020019161029d565b820191906000526020600020905b81548152906001019060200180831161028057829003601f168201915b505050505081526020016002820160009054906101000a900460ff161515151581525050905080604001511581604001901515908115158152505080600260008481526020019081526020016000206000820151816000015560208201518160010190805190602001906103129291906104e8565b5060408201518160020160006101000a81548160ff0219169083151502179055509050507fe21fa966ca5cd02748c0752352d18c48165e61cb55b4c29cccf924b5a95fcff182826040015160405161036b929190610997565b60405180910390a15050565b60026020528060005260406000206000915090508060000154908060010180546103a090610965565b80601f01602080910402602001604051908101604052809291908181526020018280546103cc90610965565b80156104195780601f106103ee57610100808354040283529160200191610419565b820191906000526020600020905b8154815290600101906020018083116103fc57829003601f168201915b5050505050908060020160009054906101000a900460ff16905083565b60005481565b6001818154811061044c57600080fd5b90600052602060002001600091509050805461046790610965565b80601f016020809104026020016040519081016040528092919081815260200182805461049390610965565b80156104e05780601f106104b5576101008083540402835291602001916104e0565b820191906000526020600020905b8154815290600101906020018083116104c357829003601f168201915b505050505081565b8280546104f490610965565b90600052602060002090601f016020900481019282610516576000855561055d565b82601f1061052f57805160ff191683800117855561055d565b8280016001018555821561055d579182015b8281111561055c578251825591602001919060010190610541565b5b50905061056a919061056e565b5090565b5b8082111561058757600081600090555060010161056f565b5090565b6000604051905090565b600080fd5b600080fd5b600080fd5b600080fd5b6000601f19601f8301169050919050565b7f4e487b7100000000000000000000000000000000000000000000000000000000600052604160045260246000fd5b6105f2826105a9565b810181811067ffffffffffffffff82111715610611576106106105ba565b5b80604052505050565b600061062461058b565b905061063082826105e9565b919050565b600067ffffffffffffffff8211156106505761064f6105ba565b5b610659826105a9565b9050602081019050919050565b82818337600083830152505050565b600061068861068384610635565b61061a565b9050828152602081018484840111156106a4576106a36105a4565b5b6106af848285610666565b509392505050565b600082601f8301126106cc576106cb61059f565b5b81356106dc848260208601610675565b91505092915050565b6000602082840312156106fb576106fa610595565b5b600082013567ffffffffffffffff8111156107195761071861059a565b5b610725848285016106b7565b91505092915050565b6000819050919050565b6107418161072e565b811461074c57600080fd5b50565b60008135905061075e81610738565b92915050565b60006020828403121561077a57610779610595565b5b60006107888482850161074f565b91505092915050565b61079a8161072e565b82525050565b600081519050919050565b600082825260208201905092915050565b60005b838110156107da5780820151818401526020810190506107bf565b838111156107e9576000848401525b50505050565b60006107fa826107a0565b61080481856107ab565b93506108148185602086016107bc565b61081d816105a9565b840191505092915050565b60008115159050919050565b61083d81610828565b82525050565b60006060820190506108586000830186610791565b818103602083015261086a81856107ef565b90506108796040830184610834565b949350505050565b60006020820190506108966000830184610791565b92915050565b600060208201905081810360008301526108b681846107ef565b905092915050565b7f4e487b7100000000000000000000000000000000000000000000000000000000600052601160045260246000fd5b60006108f88261072e565b91507fffffffffffffffffffffffffffffffffffffffffffffffffffffffffffffffff82141561092b5761092a6108be565b5b600182019050919050565b7f4e487b7100000000000000000000000000000000000000000000000000000000600052602260045260246000fd5b6000600282049050600182168061097d57607f821691505b6020821081141561099157610990610936565b5b50919050565b60006040820190506109ac6000830185610791565b6109b96020830184610834565b939250505056fea2646970667358221220dc1268d9f594914b933cef0b4d5c20638eb7f4331278769b9389fdd2c86aa5a964736f6c634300080a0033",
  "immutableReferences": {},
  "source": "// SPDX-License-Identifier: MIT\npragma solidity >=0.4.22 <0.9.0;\n\ncontract SmartCowCert {\n    uint public taskCount = 0;\n    string[] public cowcertList;\n\n  struct Task {\n    uint id;\n    string content;\n    bool completed;\n  }\n\n  mapping(uint => Task) public tasks;\n\n  event TaskCreated(\n    uint id,\n    string content,\n    bool completed\n  );\n\n  event TaskCompleted(\n    uint id,\n    bool completed\n  );\n\n  constructor() public {\n    // createTask(\"CowCert.com\");\n  }\n\n  function createTask(string memory _content) public {\n    taskCount ++;\n    tasks[taskCount] = Task(taskCount, _content, false);\n    emit TaskCreated(taskCount, _content, false);\n  }\n\n  function toggleCompleted(uint _id) public {\n    Task memory _task = tasks[_id];\n    _task.completed = !_task.completed;\n    tasks[_id] = _task;\n    emit TaskCompleted(_id, _task.completed);\n  }\n}",
  "sourcePath": "/Users/noobtoninja/Job/Programe/html-to-react/contracts/SmartCowCert.sol",
  "compiler": {
    "name": "solc",
    "version": "0.8.10+commit.fc410830.Emscripten.clang"
  },
  "schemaVersion": "3.4.3",
  "updatedAt": "2021-11-25T16:52:43.435Z",
  "devdoc": {
    "kind": "dev",
    "methods": {},
    "version": 1
  },
  "userdoc": {
    "kind": "user",
    "methods": {},
    "version": 1
  }
}