{
  "contractName": "SmartCowCert",
  "abi": [
    {
      "inputs": [],
      "payable": false,
      "stateMutability": "nonpayable",
      "type": "constructor"
    },
    {
      "anonymous": false,
      "inputs": [
        {
          "indexed": false,
          "internalType": "uint256",
          "name": "id",
          "type": "uint256"
        },
        {
          "indexed": false,
          "internalType": "bool",
          "name": "completed",
          "type": "bool"
        }
      ],
      "name": "TaskCompleted",
      "type": "event"
    },
    {
      "anonymous": false,
      "inputs": [
        {
          "indexed": false,
          "internalType": "uint256",
          "name": "id",
          "type": "uint256"
        },
        {
          "indexed": false,
          "internalType": "string",
          "name": "content",
          "type": "string"
        },
        {
          "indexed": false,
          "internalType": "bool",
          "name": "completed",
          "type": "bool"
        }
      ],
      "name": "TaskCreated",
      "type": "event"
    },
    {
      "constant": true,
      "inputs": [
        {
          "internalType": "uint256",
          "name": "",
          "type": "uint256"
        }
      ],
      "name": "cowcertList",
      "outputs": [
        {
          "internalType": "string",
          "name": "",
          "type": "string"
        }
      ],
      "payable": false,
      "stateMutability": "view",
      "type": "function"
    },
    {
      "constant": true,
      "inputs": [],
      "name": "taskCount",
      "outputs": [
        {
          "internalType": "uint256",
          "name": "",
          "type": "uint256"
        }
      ],
      "payable": false,
      "stateMutability": "view",
      "type": "function"
    },
    {
      "constant": true,
      "inputs": [
        {
          "internalType": "uint256",
          "name": "",
          "type": "uint256"
        }
      ],
      "name": "tasks",
      "outputs": [
        {
          "internalType": "uint256",
          "name": "id",
          "type": "uint256"
        },
        {
          "internalType": "string",
          "name": "content",
          "type": "string"
        },
        {
          "internalType": "bool",
          "name": "completed",
          "type": "bool"
        }
      ],
      "payable": false,
      "stateMutability": "view",
      "type": "function"
    },
    {
      "constant": false,
      "inputs": [
        {
          "internalType": "string",
          "name": "_content",
          "type": "string"
        }
      ],
      "name": "createTask",
      "outputs": [],
      "payable": false,
      "stateMutability": "nonpayable",
      "type": "function"
    },
    {
      "constant": false,
      "inputs": [
        {
          "internalType": "uint256",
          "name": "_id",
          "type": "uint256"
        }
      ],
      "name": "toggleCompleted",
      "outputs": [],
      "payable": false,
      "stateMutability": "nonpayable",
      "type": "function"
    }
  ],
  "bytecode": "0x60806040526000805534801561001457600080fd5b50610840806100246000396000f3fe608060405234801561001057600080fd5b50600436106100575760003560e01c8063111002aa1461005c578063455f5024146101175780638d97767214610145578063b6cb58a5146101fe578063d25015641461021c575b600080fd5b6101156004803603602081101561007257600080fd5b810190808035906020019064010000000081111561008f57600080fd5b8201836020820111156100a157600080fd5b803590602001918460018302840111640100000000831117156100c357600080fd5b91908080601f016020809104026020016040519081016040528093929190818152602001838380828437600081840152601f19601f8201169050808301925050505050505091929192905050506102c3565b005b6101436004803603602081101561012d57600080fd5b8101908080359060200190929190505050610408565b005b6101716004803603602081101561015b57600080fd5b81019080803590602001909291905050506105b5565b604051808481526020018060200183151515158152602001828103825284818151815260200191508051906020019080838360005b838110156101c15780820151818401526020810190506101a6565b50505050905090810190601f1680156101ee5780820380516001836020036101000a031916815260200191505b5094505050505060405180910390f35b610206610684565b6040518082815260200191505060405180910390f35b6102486004803603602081101561023257600080fd5b810190808035906020019092919050505061068a565b6040518080602001828103825283818151815260200191508051906020019080838360005b8381101561028857808201518184015260208101905061026d565b50505050905090810190601f1680156102b55780820380516001836020036101000a031916815260200191505b509250505060405180910390f35b60008081548092919060010191905055506040518060600160405280600054815260200182815260200160001515815250600260008054815260200190815260200160002060008201518160000155602082015181600101908051906020019061032e929190610743565b5060408201518160020160006101000a81548160ff0219169083151502179055509050507f05d0fb833127fc08168556d0e7ca9554fc3f6bc843b3b7d2bf1c35aea6bab660600054826000604051808481526020018060200183151515158152602001828103825284818151815260200191508051906020019080838360005b838110156103c95780820151818401526020810190506103ae565b50505050905090810190601f1680156103f65780820380516001836020036101000a031916815260200191505b5094505050505060405180910390a150565b6104106107c3565b6002600083815260200190815260200160002060405180606001604052908160008201548152602001600182018054600181600116156101000203166002900480601f0160208091040260200160405190810160405280929190818152602001828054600181600116156101000203166002900480156104d15780601f106104a6576101008083540402835291602001916104d1565b820191906000526020600020905b8154815290600101906020018083116104b457829003601f168201915b505050505081526020016002820160009054906101000a900460ff16151515158152505090508060400151158160400190151590811515815250508060026000848152602001908152602001600020600082015181600001556020820151816001019080519060200190610546929190610743565b5060408201518160020160006101000a81548160ff0219169083151502179055509050507fe21fa966ca5cd02748c0752352d18c48165e61cb55b4c29cccf924b5a95fcff182826040015160405180838152602001821515151581526020019250505060405180910390a15050565b6002602052806000526040600020600091509050806000015490806001018054600181600116156101000203166002900480601f0160208091040260200160405190810160405280929190818152602001828054600181600116156101000203166002900480156106675780601f1061063c57610100808354040283529160200191610667565b820191906000526020600020905b81548152906001019060200180831161064a57829003601f168201915b5050505050908060020160009054906101000a900460ff16905083565b60005481565b6001818154811061069757fe5b906000526020600020016000915090508054600181600116156101000203166002900480601f01602080910402602001604051908101604052809291908181526020018280546001816001161561010002031660029004801561073b5780601f106107105761010080835404028352916020019161073b565b820191906000526020600020905b81548152906001019060200180831161071e57829003601f168201915b505050505081565b828054600181600116156101000203166002900490600052602060002090601f016020900481019282601f1061078457805160ff19168380011785556107b2565b828001600101855582156107b2579182015b828111156107b1578251825591602001919060010190610796565b5b5090506107bf91906107e6565b5090565b604051806060016040528060008152602001606081526020016000151581525090565b61080891905b808211156108045760008160009055506001016107ec565b5090565b9056fea265627a7a72315820f91c7862dde569c979c20156e2d385bb063521a5c120aca72aadb909640c3e4064736f6c63430005100032",
  "source": "// SPDX-License-Identifier: MIT\npragma solidity >=0.4.22 <0.9.0;\n\ncontract SmartCowCert {\n    uint public taskCount = 0;\n    string[] public cowcertList;\n\n  struct Task {\n    uint id;\n    string content;\n    bool completed;\n  }\n\n  mapping(uint => Task) public tasks;\n\n  event TaskCreated(\n    uint id,\n    string content,\n    bool completed\n  );\n\n  event TaskCompleted(\n    uint id,\n    bool completed\n  );\n\n  constructor() public {\n    // createTask(\"CowCert.com\");\n  }\n\n  function createTask(string memory _content) public {\n    taskCount ++;\n    tasks[taskCount] = Task(taskCount, _content, false);\n    emit TaskCreated(taskCount, _content, false);\n  }\n\n  function toggleCompleted(uint _id) public {\n    Task memory _task = tasks[_id];\n    _task.completed = !_task.completed;\n    tasks[_id] = _task;\n    emit TaskCompleted(_id, _task.completed);\n  }\n}",
  "sourcePath": "/Users/noobtoninja/Job/Programe/html-to-react/contracts/SmartCowCert.sol",
  "compiler": {
    "name": "solc",
    "version": "0.5.16+commit.9c3226ce.Emscripten.clang"
  },
  "schemaVersion": "3.4.3",
  "updatedAt": "2021-10-22T16:06:09.125Z",
  "networkType": "ethereum",
  "devdoc": {
    "methods": {}
  },
  "userdoc": {
    "methods": {}
  }
}